:100000000C9462000C948A000C948A000C948A0070
:100010000C948A000C948A000C948A000C948A0038
:100020000C948A000C948A000C948A000C948A0028
:100030000C948A000C948A000C948A000C948A0018
:100040000C9479080C948A000C94E9080C94C30869
:100050000C948A000C948A000C948A000C948A00F8
:100060000C941B090C948A00000000002400270057
:100070002A000000000023002600290000000000E4
:10008000250028002B0004040404040404040202D4
:100090000202020203030303030301020408102007
:1000A0004080010204081020010204081020000012
:1000B0000008000201000003040700000000000027
:1000C00000003A0A11241FBECFEFD8E0DEBFCDBF3B
:1000D00023E0ACEBB1E001C01D92A334B207E1F71D
:1000E00011E0A0E0B1E0EEEDF6E202C005900D9265
:1000F000AC3BB107D9F710E0C2E6D0E004C02197CD
:10010000FE010E945610C136D107C9F70E94780A35
:100110000C946D130C940000833081F028F481302E
:1001200099F08230A9F008958730A9F08830C9F09D
:100130008430B1F4809180008F7D03C08091800075
:100140008F7780938000089584B58F7784BD08955C
:1001500084B58F7DFBCF8091B0008F778093B00006
:1001600008958091B0008F7DF9CF1F93CF93DF93D7
:10017000282F30E0F901E255FF4F8491F901E6564E
:10018000FF4FD491F901EA57FF4FC491CC23A9F056
:10019000162F81110E948C00EC2FF0E0EE0FFF1F54
:1001A000E458FF4FA591B4918FB7F894EC911111D9
:1001B00008C0D095DE23DC938FBFDF91CF911F91D4
:1001C0000895DE2BF8CF3FB7F894809115029091F7
:1001D0001602A0911702B091180226B5A89B05C07F
:1001E0002F3F19F00196A11DB11D3FBFBA2FA92FB6
:1001F000982F8827BC01CD01620F711D811D911DB3
:1002000042E0660F771F881F991F4A95D1F708951E
:100210008F929F92AF92BF92CF92DF92EF92FF9216
:100220004B015C010E94E3006B017C010E94E30032
:100230006C197D098E099F09683E734081059105FF
:10024000A8F321E0821A9108A108B10888EEC80E2F
:1002500083E0D81EE11CF11C81149104A104B104B7
:1002600029F7FF90EF90DF90CF90BF90AF909F90D5
:100270008F90089508950895AF92BF92CF92DF9224
:10028000EF92FF920F931F93CF93DF936C017B014B
:100290008B01040F151FEB015E01AE18BF08C017DC
:1002A000D10759F06991D601ED91FC910190F0814F
:1002B000E02DC6010995892B79F7C501DF91CF9112
:1002C0001F910F91FF90EF90DF90CF90BF90AF9074
:1002D0000895FC01538D448D252F30E0842F90E04C
:1002E000821B930B541710F0CF9608950197089531
:1002F000FC01918D828D981761F0A28DAE0FBF2FFA
:10030000B11D5D968C91928D9F5F9F73928F90E04F
:1003100008958FEF9FEF0895FC01918D828D9817BE
:1003200031F0828DE80FF11D858D90E008958FEFFB
:100330009FEF0895FC01918D228D892F90E0805CC4
:100340009F4F821B91098F73992708958BE892E044
:100350000E949A0121E0892B09F420E0822F089560
:1003600080E090E0892B29F00E94A60181110C9475
:1003700000000895FC01A48DA80FB92FB11DA35A48
:10038000BF4F2C91848D90E001968F739927848FB5
:10039000A689B7892C93A089B1898C9183708064D8
:1003A0008C93938D848D981306C00288F389E02D79
:1003B00080818F7D80830895EF92FF920F931F932A
:1003C000CF93DF93EC0181E0888F9B8D8C8D981308
:1003D0001AC0E889F989808185FF15C09FB7F89414
:1003E000EE89FF896083E889F98980818370806460
:1003F00080839FBF81E090E0DF91CF911F910F91AB
:10040000FF90EF900895F62E0B8D10E00F5F1F4FB9
:100410000F731127E02E8C8D8E110CC00FB607FCC8
:10042000FACFE889F989808185FFF5CFCE010E9456
:10043000BA01F1CFEB8DEC0FFD2FF11DE35AFF4F09
:10044000F0829FB7F8940B8FEA89FB8980818062E4
:10045000CFCFCF93DF93EC01888D8823B9F0AA89A1
:10046000BB89E889F9898C9185FD03C0808186FD6F
:100470000DC00FB607FCF7CF8C9185FFF2CF8081BE
:1004800085FFEDCFCE010E94BA01E9CFDF91CF9178
:1004900008958FB7F894809100028FBF08958EBDA4
:1004A00000000DB407FEFDCF8EB508958CBD9DBD37
:1004B00008952091DD01260F3327331F21323105A6
:1004C000ECF420916102FC0190E080E0243069F0BE
:1004D00082E00895A091DD012191AC0143545E4F6B
:1004E000A40FB52FB11D2C930196861798F3809118
:1004F000DD01680F6093DD0180E0089581E00895DB
:100500001092610281E08093600210923B0261E0F0
:1005100082E10E94B50061E083E10E94B500E9EB51
:10052000F0E080818E7F808380818D7F808388E46E
:100530008093B80085E48093BC000895CF93DF9347
:1005400091E09093BC018823B9F0C091B800D0919C
:10055000BA008091BC008A7B8093BC0060E082E19D
:100560000E94B50060E083E10E94B5000E94800215
:10057000D093BA00C093B800DF91CF9108958F92C5
:100580009F92AF92BF92CF92DF92EF92FF920F9322
:100590001F93CF93DF93D0918A02D13208F0D7C056
:1005A000182FC09189020E94E3006B017C018091A9
:1005B000610281116BC082E080936102109360023E
:1005C0008FEF80935F0210925E02D0935D02A9E6E6
:1005D000B2E0EDE3F2E080E0D81391C010923C026B
:1005E00080913C02CC0FC82BC0933C0280913B020F
:1005F000813009F088C010923B020E94E3006B0139
:100600007C0180913C028093BB00809163029091B9
:100610006402A0916502B0916602892B8A2B8B2B14
:10062000A1F00E94E3000091630210916402209106
:100630006502309166026C197D098E099F090617C3
:1006400017072807390708F442C08091BC0083FDD2
:10065000D8CF85EC8093BC000E94E3006B017C0145
:1006600080916102823009F450C080915F028F3F17
:1006700009F46FC080915F02803209F46CC08091F0
:100680005F02803309F469C084E026C08091630270
:1006900090916402A0916502B0916602892B8A2B29
:1006A0008B2B09F484CF0E94E3008090630290902A
:1006B0006402A0906502B09066026C197D098E09F3
:1006C0009F0986169706A806B90608F070CF809194
:1006D00062020E949E0285E01092680210928A02D5
:1006E00010926702DF91CF911F910F91FF90EF90D1
:1006F000DF90CF90BF90AF909F908F9008959D9185
:1007000091938F5F69CF85EEA5CF80916302909121
:100710006402A0916502B0916602892B8A2B8B2B13
:1007200009F49ECF0E94E3000091630210916402DD
:1007300020916502309166026C197D098E099F092E
:10074000061717072807390708F08ACFC0CF81E0BE
:10075000C3CF80E0C1CF82E0BFCF83E0BDCF1F9386
:10076000CF93DF93162FC4E3D3E0A985BA85988190
:1007700021E0209367029093890210926802109200
:100780008A02ED91FC9111970190F081E02D682F84
:10079000CD01099589859A85DC01ED91FC91019047
:1007A000F081E02D612F099581E0DF91CF911F91BC
:1007B0000C94BF02CF93DF932091390330913A0319
:1007C000232BD1F0D62FC82F80913B0390913C036F
:1007D0000E94560260E0809138030E94B5008C2F81
:1007E0000E944F028D2F0E944F0261E080913803DA
:1007F000DF91CF910C94B500DF91CF910C94AF03B2
:100800008F929F92AF92BF92CF92DF92EF92FF9220
:100810000F931F93CF93DF93D82FC62F142F6132DE
:1008200008F09CC00E94E3006B017C018091610292
:1008300081116FC081E080936102109360029FEF8D
:1008400090935F0210925E029C0F90935D028093E2
:100850003C0280913C02DD0FD82BD0933C0280916A
:100860003B02813009F07CC010923B020E94E30001
:100870006B017C0180913C028093BB0080916302FC
:1008800090916402A0916502B0916602892B8A2B37
:100890008B2BA1F00E94E30000916302109164028F
:1008A00020916502309166026C197D098E099F09BD
:1008B000061717072807390708F44CC08091BC00B9
:1008C00083FDD8CF85EC8093BC000E94E3006B01D0
:1008D0007C0180916102813009F444C080915E0204
:1008E0008C1710F4C0915E02EDE3F2E0ABE1B2E0F0
:1008F00080E08C1359C08C2FDF91CF911F910F9105
:10090000FF90EF90DF90CF90BF90AF909F908F902F
:1009100008958091630290916402A0916502B09164
:100920006602892B8A2B8B2B09F480CF0E94E3006F
:100930008090630290906402A0906502B09066027D
:100940006C197D098E099F0986169706A806B906B7
:1009500008F06CCF809162020E949E02C0E0CBCF73
:1009600085EEB1CF8091630290916402A0916502FF
:10097000B0916602892B8A2B8B2B09F4AACF0E9497
:10098000E3000091630210916402209165023091AE
:1009900066026C197D098E099F090617170728073B
:1009A000390708F096CFD6CF91919D938F5FA1CF55
:1009B0000895E0911A0280911902E81730F4F0E0EE
:1009C000E55EFD4F808190E008958FEF9FEF0895E1
:1009D00090911A02809119022FEF3FEF981748F477
:1009E000E92FF0E0E55EFD4F208130E09F5F9093BE
:1009F0001A02C90108958091190290911A02891B67
:100A0000990B0895CF92DF92EF92FF920F931F936D
:100A1000CF93DF937C01CB018A01209167022223CF
:100A200089F0EB016B01C40ED51ECC15DD0569F014
:100A30006991D701ED91FC910190F081E02DC70102
:100A40000995F3CF642F0E945902C801DF91CF911D
:100A50001F910F91FF90EF90DF90CF900895CF936B
:100A6000DF931F92CDB7DEB76983209167022223FF
:100A7000F9F020918A02203258F021E030E0FC01A8
:100A80003383228390E080E00F90DF91CF9108952F
:100A900080916802E82FF0E0E759FD4F998190833B
:100AA0008F5F8093680280938A0281E090E0ECCFB0
:100AB00061E0CE0101960E945902F7CF90E080E0FC
:100AC00008950F931F93CF938C01C62F8091390304
:100AD00090913A03892BE1F080913B0390913C0384
:100AE0000E94560260E0809138030E94B5008C2F6E
:100AF000806C0E944F0280E00E944F02D8018C93CC
:100B000061E080913803CF911F910F910C94B50053
:100B100080913D0390913E032091340331E0309366
:100B20006702209389021092680210928A0260681C
:100B3000DC01ED91FC910190F081E02D099581E0BF
:100B40000E94BF0241E061E0809134030E940004F2
:100B500010921A028093190280913D0390913E03F6
:100B6000DC01ED91FC910084F185E02D0995892B44
:100B7000D9F080913D0390913E03DC01ED91FC9111
:100B80000284F385E02D0995F801808380913D036F
:100B900090913E03DC01ED91FC910084F185E02D04
:100BA000CF911F910F910994CF911F910F910895AB
:100BB0001F93CF93DF931F92CDB7DEB7182F60E25C
:100BC000CE0101960E94610569816F70612B80E200
:100BD0000E94DA0364E670E080E090E00E94080181
:100BE0000F90DF91CF911F910895FC01019000209B
:100BF000E9F73197AF01481B590BBC018BE892E034
:100C00000C943C018F929F92AF92BF920F931F93CF
:100C1000CF93DF93CDB7DEB7A1970FB6F894DEBFC1
:100C20000FBECDBF19A2423008F44AE08E010F5D1D
:100C30001F4F842E912CB12CA12CA50194010E9450
:100C40002010E62FB901CA01EA30F4F4E05DD801C2
:100C5000EE938D01232B242B252B79F790E080E058
:100C6000109719F0CD010E94F505A1960FB6F894E2
:100C7000DEBF0FBECDBFDF91CF911F910F91BF900F
:100C8000AF909F908F900895E95CE1CFCF93DF9371
:100C90000E94F505EC018CE291E00E94F5058C0FB5
:100CA0009D1FDF91CF9108954F925F926F927F9237
:100CB0008F929F92AF92BF92CF92DF92EF92FF926C
:100CC0006B017C01AC019B010E9476118823C1F06D
:100CD0008FE291E00E94F5057C018CE291E00E9498
:100CE000F5058E0D9F1DFF90EF90DF90CF90BF9088
:100CF000AF909F908F907F906F905F904F900895EE
:100D000046015701E894B7F82FEF3FEF4FE75FE751
:100D1000C501B4010E94761181110DC02FEF3FEF84
:100D20004FE75FE7C501B4010E94B10E18161CF42D
:100D300083E391E0CFCF2FEF3FEF4FE75FE4C701B1
:100D4000B6010E94711118161CF487E391E0C2CF1E
:100D50002FEF3FEF4FE75FECC701B6010E94B10EE6
:100D600087FDF3CF20E030E0A901C701B6010E9462
:100D7000B10EB12CA12C87FF0AC06DE28BE892E086
:100D80000E94DC015C01F7FAF094F7F8F0942AE095
:100D900037ED43EA5BE3C701B6010E945D102B010A
:100DA0003C010E9442116B017C010E94B60E9B0126
:100DB000AC01C301B2010E945C102B013C014AE06E
:100DC000C701B6010E9402067C01EA0CFB1C6EE220
:100DD0008BE892E00E94DC01E80EF91E20E030E092
:100DE00040E251E4C301B2010E94170F2B013C0104
:100DF0000E9442114B01B12CA12C4AE0C501B40163
:100E00000E940206E80EF91EC501B4010E94B60E4A
:100E10009B01AC01C301B2010E945C1020E030E0F4
:100E200040E251E40E94170F0E94421190E080E0DE
:100E30004AE00E940206E80EF91E4FCFCF92DF92E1
:100E4000EF92FF92CF93DF936C01990FEE08FF08AA
:100E5000F7FE1FC06DE28BE892E00E94DC01EC011E
:100E600066277727CB016C197D098E099F094AE017
:100E70000E940206C80FD91F8CE291E00E94F5057E
:100E80008C0F9D1FDF91CF91FF90EF90DF90CF905F
:100E900008954AE0C701B6010E940206EC01ECCFBA
:100EA000CF93DF93EC0188819981009711F00E9424
:100EB0001712198218821D821C821B821A82DF91EE
:100EC000CF910895FC0180819181009711F00C94DD
:100ED000171208950F931F93CF93DF93EC0188812E
:100EE0009981009759F02A813B812617370730F006
:100EF00081E0DF91CF911F910F9108958B016F5F7A
:100F00007F4F0E94A012009759F0998388831B831A
:100F10000A832C813D81232B59F7FC011082E8CFF5
:100F200080E0E7CFEF92FF920F931F93CF93DF9371
:100F30006115710541F480E0DF91CF911F910F9110
:100F4000FF90EF90089541155105B1F07B01EC0140
:100F50000C811D81040F151FB8010E946A078823A8
:100F600051F3288139818C819D81B701820F931FB4
:100F70000E9466131D830C8381E0DECFCF93DF9345
:100F8000EC01FB0101900020E9F73197AF01461B0E
:100F9000570B0E949207811103C0CE010E94500797
:100FA000CE01DF91CF910895CF93DF93EC01FB0148
:100FB00044815581608171810E949207811103C033
:100FC000CE010E945007CE01DF91CF910895EF929C
:100FD000FF920F931F93CF93DF93EC017B018A0164
:100FE000BA010E946A0781110BC0CE010E9450070E
:100FF000CE01DF91CF911F910F91FF90EF90089557
:101000001D830C83B701888199810E946613F0CFFC
:10101000EF92FF920F931F93CF93DF93CDB7DEB77D
:1010200029970FB6F894DEBF0FBECDBF8C01862F77
:10103000F8011182108213821282158214824AE012
:101040009E012F5F3F4F7901B90190E00E94870E0A
:10105000F70101900020E9F73197AF014E195F09C0
:10106000B701C8010E94E70729960FB6F894DEBFC2
:101070000FBECDBFDF91CF911F910F91FF90EF90E9
:10108000089585ED8093BC00809163029091640285
:10109000A0916502B09166020796A11DB11D23E0E3
:1010A000B695A795979587952A95D1F72091BC007D
:1010B00024FD03C010926102089540916302509193
:1010C00064026091650270916602452B462B472BA6
:1010D00069F30097A105B10541F02AE22A95F1F7DD
:1010E00000C00197A109B109E1CF809162020C947F
:1010F0009E021F920F920FB60F9211242F933F93CF
:101100008F939F93AF93BF9380911102909112029E
:10111000A0911302B09114023091100223E0230F2A
:101120002D3758F50196A11DB11D20931002809313
:10113000110290931202A0931302B09314028091B3
:10114000150290911602A0911702B0911802019613
:10115000A11DB11D8093150290931602A093170252
:10116000B0931802BF91AF919F918F913F912F91B2
:101170000F900FBE0F901F90189526E8230F029630
:10118000A11DB11DD2CF1F920F920FB60F92112445
:101190002F933F934F935F936F937F938F939F937F
:1011A000AF93BF93EF93FF938BE892E00E94BA0155
:1011B000FF91EF91BF91AF919F918F917F916F912F
:1011C0005F914F913F912F910F900FBE0F901F9005
:1011D00018951F920F920FB60F9211242F938F9391
:1011E0009F93EF93FF93E0919B02F0919C0280818B
:1011F000E091A102F091A20282FD1BC0908180913A
:10120000A4028F5F8F732091A502821741F0E091B5
:10121000A402F0E0E557FD4F958F8093A402FF9163
:10122000EF919F918F912F910F900FBE0F901F9074
:1012300018958081F4CF1F920F920FB60F92112450
:101240002F933F934F935F936F937F938F939F93CE
:10125000AF93BF93EF93FF938091B900887F80365F
:1012600009F44AC0F0F5883209F4A7C018F58031B6
:1012700009F49BC0B8F4882309F4F9C0883009F454
:1012800094C0FF91EF91BF91AF919F918F917F910A
:101290006F915F914F913F912F910F900FBE0F90E3
:1012A0001F901895883109F488C0803251F78093D7
:1012B0005F0214C0803409F49DC040F48033B9F358
:1012C0008833F9F680935F0285ECB0C0803509F46D
:1012D00085C0883509F496C0883499F60E94410883
:1012E000D0CF883909F48CC038F5883729F050F40C
:1012F000883611F0803729F683E0809361021092DE
:10130000FF0157C0883809F47BC0803919F0803854
:1013100009F0B7CF8091FF01803208F071C0E091F1
:10132000FF0181E08E0F8093FF018091BB00F0E010
:10133000E152FE4F80833DC0803B39F0E0F4803ABB
:1013400009F479C0883A09F09CCF84E08093610267
:101350001092DE011092DD01E0910302F09104028F
:1013600009958091DD0181110FC081E08093DD013D
:101370001092BD0109C0803C09F4A6CF883C09F455
:10138000A3CF883B09F07DCFE091DE0181E08E0F95
:101390008093DE01F0E0E354FE4F80818093BB0038
:1013A0009091DE018091DD0129C080913C02809303
:1013B000BB0085EC8093BC0064CF90915E0280916D
:1013C0005D02981758F5E0915E0281E08E0F8093E0
:1013D0005E02F0E0E35CFD4F8081E9CFE0915E02C8
:1013E00081E08E0F80935E028091BB00F0E0E35CB1
:1013F000FD4F808390915E0280915D029817C8F244
:1014000085E8D8CFE0915E0281E08E0F80935E0286
:101410008091BB00F0E0E35CFD4F8083809160022F
:1014200081115CCF81E080933B0284EA8093BC0011
:101430001092610226CF85EC8093BC00109261026D
:101440008091FF01803230F4E091FF01F0E0E15241
:10145000FE4F10826091FF0170E0E0910102F09177
:1014600002028FED91E009951092FF010ACF1092D0
:101470005F0234CFEBE8F2E01382128288EE93E051
:10148000A0E0B0E084839583A683B7832CE031E0AD
:101490003183208325EC30E03587248724EC30E04D
:1014A0003787268720EC30E0318B208B21EC30E031
:1014B000338B228B22EC30E0358B248B26EC30E012
:1014C000378B268B118E128E138E148EE8E2F3E08A
:1014D0001382128284839583A683B7838EE191E081
:1014E00091838083E4E3F3E080E5878310860895A9
:1014F000CF93DF93CDB7DEB7EB970FB6F894DEBF8F
:101500000FBECDBF789484B5826084BD84B5816000
:1015100084BD85B5826085BD85B5816085BD8091BE
:101520006E00816080936E00109281008091810036
:10153000826080938100809181008160809381002E
:10154000809180008160809380008091B1008460F0
:101550008093B1008091B00081608093B000809151
:101560007A00846080937A0080917A008260809310
:101570007A0080917A00816080937A0080917A006D
:10158000806880937A001092C100E0919B02F091F4
:101590009C0282E08083E0919702F0919802108291
:1015A000E0919902F0919A028FEC80831092A3024D
:1015B000E0919F02F091A00286E08083E0919D027D
:1015C000F0919E02808180618083E0919D02F09184
:1015D0009E02808188608083E0919D02F0919E024E
:1015E000808180688083E0919D02F0919E028081DD
:1015F0008F7D808388E293E090933E0380933D0348
:1016000010921A02109219021092680210928A0225
:101610000E9480028AE391E0909304028093030287
:101620008BE391E0909302028093010210923A03BF
:101630001092390389E18093340360E88FE10E94BE
:10164000AF0364E670E080E090E00E94080167E08C
:1016500080E20E94DA0364E670E080E090E00E949D
:10166000080160E883E20E94DA0364E670E080E04B
:1016700090E00E94080163E28E010F5F1F4FC801D6
:101680000E9461056981606383E20E94DA0364E677
:1016900070E080E090E00E94080180E095E0909387
:1016A00036038093350380E790E00E94D80564E616
:1016B00070E080E090E00E94080180E490E00E94E9
:1016C000D805E0EAF0E02491ECE8F0E0849188238A
:1016D000C9F090E0880F991FFC01E859FF4FA591D0
:1016E000B491FC01E458FF4F459154913FB7F894F1
:1016F0009C91822F809598239C93DA019C91892359
:101700008C933FBF10920B0210920A023E01B6E387
:101710006B0E711CB7E04B2E512C68E2C8010E9481
:101720006105F98069E2C8010E9461056981762F2F
:101730006F2D072E000C880B990B0E94B80E6B01C1
:101740007C016091350370913603072E000C880BE5
:10175000990B0E94B80E9B01AC01C701B6010E9413
:10176000C9106B017C01809107028111C9C0609191
:10177000050270910602072E000C880B990B0E943F
:10178000B80E4B015C0120E030E040E05FE30E94D6
:10179000B10E181654F020E030E040E05FE3C701DE
:1017A000B6010E9471111816A4F020E030E040E06C
:1017B0005FEBC501B4010E94711187FD16C020E0E6
:1017C00030E040E05FEBC701B6010E94B10E87FF39
:1017D0000CC080910A0290910B02019690930B022B
:1017E00080930A0281E080930702C701B6010E943C
:1017F0003B117093060260930502E4EBF0E08491E4
:10180000E0EAF0E0F490ECE8F0E0E490EE2009F497
:101810008FC081110E948C00EE2DF0E0EE0FFF1FB3
:10182000EE58FF4FA591B4918C91F82231E020E061
:1018300009F430E0832F922FF1E08F27817090918F
:101840000F02891709F477C091E090930E028093FC
:101850000F0280910E02882309F180910F028823E4
:10186000E9F080910C0290910D02019665E070E024
:101870000E940C1090930D0280930C028BE391E078
:101880000E94F50580910C0290910D020E941E07A6
:1018900064EF71E080E090E00E94080180910C020A
:1018A00090910D0220910001309101018217930760
:1018B000A1F090930101809300018CE291E00E94DD
:1018C000F50580910C0290910D028230910509F48A
:1018D000C8C1A4F5019709F444C064E670E080E053
:1018E00090E00E94080180E090E0892B09F415CF78
:1018F0000E94A601882309F410CF0E9400000DCF9A
:1019000020E030E040E05FE3C701B6010E94B10E85
:1019100018160CF46ACF20E030E040E05FEBC7011E
:10192000B6010E94711187FD60CF109207025DCF52
:1019300090E080E081CF10920E028BCF8330910532
:1019400009F4B4C1049749F684EA91E00E9446067E
:101950008CEA91E00E94460687EB91E00E944606E1
:10196000BCCF8DE491E00E94460680E691E00E94A3
:10197000F5051982A0900802B0900902D5011496CD
:101980008D919C911597892B09F45EC011968D91CC
:101990009C9112972C9131E0309367022093890239
:1019A0001092680210928A02DC01ED91FC91028093
:1019B000F381E02D41E050E0B8010995019709F06D
:1019C00043C080E00E94BF0281113EC0D12CC12CD7
:1019D000F501848195817201EC18FD088E159F0533
:1019E00008F47C0141E0C2018E199F09C816D9068E
:1019F00008F440E06E2DD5018C910E9400041092F5
:101A00001A02809319028E151F04F1F448018C0C00
:101A10009D1C1401C401821993098E159F0570F451
:101A2000F50181819281DC01ED91FC910284F385C5
:101A3000E02D0995F40181934F01ECCFCE0CDF1C12
:101A4000F7E0CF16D10420F249814F772A81822F07
:101A500090E034E0959587953A95E1F7982F990FA6
:101A6000990FC82EC91ACC0CC20E2B81822F90E080
:101A700054E0959587955A95E1F7982F990F990F0E
:101A8000D82ED91ADD0CD20E2D81822F90E064E081
:101A9000959587956A95E1F7982F990F990FE82EFC
:101AA000E91AEE0CE20E8E818F77282F30E074E079
:101AB000359527957A95E1F7922F990F990FF22E88
:101AC000F91AFF0CF80EBF80842F90E0E4E09595A2
:101AD0008795EA95E1F7982F990F990F682F691B61
:101AE000660F640FCE0142960E9408086C2DCE014D
:101AF00048960E9408086D2DCE014E960E94080857
:101B00006E2DCE0184960E9408086F2DCE018A9614
:101B10000E94080819AA18AA1BAA1AAA1DAA1CAA78
:101B20008B2D90E0F4E095958795FA95E1F7982F45
:101B3000990F990F891B880FB80E8B2D90E04AE002
:101B4000B8018053984F0E94870EF8010190002041
:101B5000E9F73197AF01401B510BB801CE01C09698
:101B60000E94E7071A8219821C821B821E821D8234
:101B700068A979A96115710529F04CA95DA9C80169
:101B80000E94E70768E771E0C8010E94BE07BE0136
:101B9000665D7F4F0E94D40768E771E00E94BE0730
:101BA000BE016C5D7F4F0E94D4076CE871E00E941B
:101BB000BE07BE01625E7F4F0E94D4076AE771E0F4
:101BC0000E94BE07BE01685E7F4F0E94D4076AE78D
:101BD00071E00E94BE07BE016E5E7F4F0E94D40777
:101BE0001FAA1EAA19AE18AE1BAE1AAE861597050F
:101BF00069F0DC016D917C9111976115710531F0EF
:101C000014964D915C91C3010E94E707C8010E94A0
:101C10006207CE01C0960E946207CE018A960E949A
:101C20006207CE0184960E946207CE014E960E9402
:101C30006207CE0148960E946207CE0142960E943A
:101C400062074AAD5BAD6EA97FA98BE892E00E9466
:101C50003C018CE291E00E94F505C3010E946207FD
:101C60003CCE60910A0270910B02072E000C880B8B
:101C7000990B0E94B80E2AE037ED43E25DE30E9423
:101C8000170F6B017C018CE791E00E94F5058091B4
:101C90000A0290910B020E941E0784E891E00E94C4
:101CA000F505C701B6010E94540617CE60910A02DD
:101CB00070910B02072E000C880B990B0E94B80E36
:101CC0002CE537E743E35FE30E94170F6B017C01CC
:101CD0008EE891E00E94460687E991E00E94F505B2
:101CE00020E030E04AE754E4C701B6010E94C91081
:101CF0000E9454068CE991E00E94F50520E030E254
:101D000049EC54E4C701B6010E94C910CCCFBB27EF
:101D1000FB015527AA27880F991FAA1FA41710F0A7
:101D2000A41B83955051B9F7A05DAA3308F0A95DB3
:101D3000A193009779F7B111B1931192CB010C9453
:101D4000A10EDC01FC01672F71917723E1F7329737
:101D500004C07C916D9370836291AE17BF07C8F386
:101D600008950E94F30E08F481E00895E89409C0F4
:101D700097FB3EF490958095709561957F4F8F4FBE
:101D80009F4F9923A9F0F92F96E9BB279395F695D4
:101D9000879577956795B795F111F8CFFAF4BB0F52
:101DA00011F460FF1BC06F5F7F4F8F4F9F4F16C0B6
:101DB000882311F096E911C0772321F09EE8872F40
:101DC000762F05C0662371F096E8862F70E060E0FC
:101DD0002AF09A95660F771F881FDAF7880F969575
:101DE000879597F90895990F0008550FAA0BE0E819
:101DF000FEEF16161706E807F907C0F012161306CD
:101E0000E407F50798F0621B730B840B950B39F40C
:101E10000A2661F0232B242B252B21F408950A2672
:101E200009F4A140A6958FEF811D811D08950E94A0
:101E30002A0F0C949B0F0E948D0F38F00E94940F74
:101E400020F0952311F00C94840F0C948A0F112428
:101E50000C94CF0F0E94AC0F70F3959FC1F3950FB8
:101E600050E0551F629FF001729FBB27F00DB11D1E
:101E7000639FAA27F00DB11DAA1F649F6627B00DAE
:101E8000A11D661F829F2227B00DA11D621F739F97
:101E9000B00DA11D621F839FA00D611D221F749FA5
:101EA0003327A00D611D231F849F600D211D822FEC
:101EB000762F6A2F11249F5750409AF0F1F0882313
:101EC0004AF0EE0FFF1FBB1F661F771F881F915040
:101ED0005040A9F79E3F510580F00C94840F0C945C
:101EE000CF0F5F3FE4F3983ED4F3869577956795DF
:101EF000B795F795E7959F5FC1F7FE2B880F911D6A
:101F00009695879597F9089597F99F6780E870E00F
:101F100060E008959FEF80EC089500240A9416165F
:101F2000170618060906089500240A9412161306C7
:101F3000140605060895092E0394000C11F4882355
:101F400052F0BB0F40F4BF2B11F460FF04C06F5F71
:101F50007F4F8F4F9F4F089557FD9058440F551F47
:101F600059F05F3F71F04795880F97FB991F61F01B
:101F70009F3F79F087950895121613061406551F92
:101F8000F2CF4695F1DF08C0161617061806991FFE
:101F9000F1CF86957105610508940895E894BB27F3
:101FA00066277727CB0197F908952F923F924F929A
:101FB0005F926F927F928F929F92AF92BF92CF92D9
:101FC000DF92EF92FF920F931F93CF93DF93CDB7E2
:101FD000DEB7CA1BDB0B0FB6F894DEBF0FBECDBF5A
:101FE00009942A88398848885F846E847D848C842B
:101FF0009B84AA84B984C884DF80EE80FD800C8134
:102000001B81AA81B981CE0FD11D0FB6F894DEBF16
:102010000FBECDBFED01089597FB072E16F4009477
:1020200007D077FD09D00E94421007FC05D03EF48E
:10203000909581959F4F0895709561957F4F089574
:10204000A1E21A2EAA1BBB1BFD010DC0AA1FBB1FBC
:10205000EE1FFF1FA217B307E407F50720F0A21B2E
:10206000B30BE40BF50B661F771F881F991F1A949B
:1020700069F760957095809590959B01AC01BD01C5
:10208000CF010895AA1BBB1B51E107C0AA1FBB1FAC
:10209000A617B70710F0A61BB70B881F991F5A95F4
:1020A000A9F780959095BC01CD010895EE0FFF1F13
:1020B0000590F491E02D09945058BB27AA270E945F
:1020C00074100C949B0F0E948D0F38F00E94940F97
:1020D00020F039F49F3F19F426F40C948A0F0EF483
:1020E000E095E7FB0C94840FE92F0E94AC0F58F3A6
:1020F000BA17620773078407950720F079F4A6F5ED
:102100000C94CE0F0EF4E0950B2EBA2FA02D0B01E0
:10211000B90190010C01CA01A0011124FF27591B2C
:1021200099F0593F50F4503E68F11A16F040A22F32
:10213000232F342F4427585FF3CF469537952795A3
:10214000A795F0405395C9F77EF41F16BA0B620BA2
:10215000730B840BBAF09150A1F0FF0FBB1F661FE9
:10216000771F881FC2F70EC0BA0F621F731F841F2C
:1021700048F4879577956795B795F7959E3F08F052
:10218000B0CF9395880F08F09927EE0F9795879514
:1021900008950E94DD100C949B0F0E94940F58F03C
:1021A0000E948D0F40F029F45F3F29F00C94840FBA
:1021B00051110C94CF0F0C948A0F0E94AC0F68F34E
:1021C0009923B1F3552391F3951B550BBB27AA27F0
:1021D00062177307840738F09F5F5F4F220F331F2A
:1021E000441FAA1FA9F335D00E2E3AF0E0E832D0F2
:1021F00091505040E695001CCAF72BD0FE2F29D0F5
:10220000660F771F881FBB1F261737074807AB07C6
:10221000B0E809F0BB0B802DBF01FF2793585F4F3B
:102220003AF09E3F510578F00C94840F0C94CF0F38
:102230005F3FE4F3983ED4F3869577956795B7951D
:10224000F7959F5FC9F7880F911D9695879597F928
:102250000895E1E0660F771F881FBB1F62177307A1
:102260008407BA0720F0621B730B840BBA0BEE1FB6
:1022700088F7E09508950E9442116894B1110C947A
:10228000CF0F08950E94B40F88F09F5798F0B92F90
:102290009927B751B0F0E1F0660F771F881F991F9B
:1022A0001AF0BA95C9F714C0B13091F00E94CE0F60
:1022B000B1E008950C94CE0F672F782F8827B85F70
:1022C00039F0B93FCCF3869577956795B395D9F7F3
:1022D0003EF490958095709561957F4F8F4F9F4FFD
:1022E00008950E94F30E08F48FEF08950E94F30EF4
:1022F000880B990B08950F931F93CF93DF93823030
:10230000910510F482E090E0E0914103F0914203E6
:1023100030E020E0B0E0A0E0309799F421153105DD
:1023200009F44AC0281B390B24303105D8F58A81BD
:102330009B816115710589F1FB0193838283FE0105
:1023400011C0408151810281138148175907E0F083
:102350004817590799F4109761F012960C93129749
:1023600013961C933296CF01DF91CF911F910F915D
:1023700008950093410310934203F4CF21153105D2
:1023800051F04217530738F0A901DB019A01BD0152
:10239000DF01F801C1CFEF01F9CF909342038093A1
:1023A0004103CDCFFE01E20FF31F819391932250A1
:1023B000310939832883D7CF20913F0330914003DF
:1023C000232B41F420910401309105013093400307
:1023D00020933F0320910201309103012115310523
:1023E00041F42DB73EB74091060150910701241BDF
:1023F000350BE0913F03F0914003E217F307A0F49F
:102400002E1B3F0B2817390778F0AC014E5F5F4F4A
:102410002417350748F04E0F5F1F50934003409339
:102420003F03819391939FCFF0E0E0E09CCFCF9367
:10243000DF930097E9F0FC01329713821282A0919A
:102440004103B0914203ED0130E020E01097A1F488
:1024500020813181820F931F20913F0330914003EF
:102460002817390709F061C0F0934003E0933F0358
:10247000DF91CF910895EA01CE17DF07E8F54A8191
:102480005B819E0141155105B1F7E901FB83EA83A8
:1024900049915991C40FD51FEC17FD0761F4808154
:1024A00091810296840F951FE90199838883828127
:1024B00093819B838A83F0E0E0E012968D919C915A
:1024C00013970097B9F52D913C911197CD01029684
:1024D000820F931F20913F03309140032817390743
:1024E00039F6309751F51092420310924103B093A0
:1024F0004003A0933F03BCCFD383C283408151816B
:10250000840F951FC817D90761F44E5F5F4F88810C
:102510009981480F591F518340838A819B819383FE
:1025200082832115310509F0B0CFF0934203E09387
:1025300041039ECFFD01DC01C0CF13821282D7CFB1
:10254000B0E0A0E0E6EAF2E10C94D70F8C0100972E
:1025500051F4CB010E947B118C01C801CDB7DEB7CD
:10256000E0E10C94F30FFC01E60FF71F9C012250F1
:102570003109E217F30708F49DC0D901CD91DC9130
:102580001197C617D70798F0C530D10530F3CE01A3
:1025900004978617970708F3C61BD70B2297C1939A
:1025A000D1936D937C93CF010E941712D6CF5B011C
:1025B000AC1ABD0A4C018C0E9D1EA0914103B09136
:1025C0004203512C412CF12CE12C109731F58091D4
:1025D0003F03909140038815990509F05CC04616A9
:1025E000570608F058C080910201909103010097AE
:1025F00041F48DB79EB74091060150910701841BAD
:10260000950BE817F90708F055C0F0934003E093E5
:102610003F03F90171836083A0CF8D919C91119745
:1026200012966C90129713967C901397A815B90583
:1026300059F56C0142E0C40ED11CCA14DB0420F130
:10264000AC014A195B09DA011296159780F0628293
:10265000738251834083D9016D937C93E114F1041B
:1026600071F0D7011396FC93EE93129776CF2296D2
:102670008C0F9D1FF90191838083F301EFCFF093BD
:102680004203E093410369CF4816590608F42C0130
:102690007D01D3019ACFCB010E947B117C01009771
:1026A00049F0AE01B8010E945D13C8010E941712E3
:1026B000870153CF10E000E050CFFB01DC0102C0E6
:1026C00001900D9241505040D8F70895FB01DC0174
:0E26D00001900D920020E1F70895F894FFCFDD
:1026DE00FFFF00004303800000000000DC013C010E
:1026EE00690129029A0178018C01000000002F0572
:1026FE0002055E05D804FB04E804D9040D0A006E39
:10270E00616E00696E66006F7666004D6F646520BF
:10271E006368616E67656420746F3A200057656C5C
:10272E00636F6D6520546F2048657861626974002F
:10273E0043757272656E74204461746520616E64B7
:10274E002054696D653A20002F003A00537465706D
:10275E00733A200043616C6F7269653A20004469D8
:10276E007374616E6365004B6D3A20004D696C6544
:10277E00733A20004D616465204279004B70616EA2
:0C278E006573617238380076312E30001F
:00000001FF
