:100000000C94A9020C94D1020C94D1020C94D1024C
:100010000C94D1020C94D1020C94D1020C94D10214
:100020000C94D1020C94D1020C94D1020C94D10204
:100030000C94D1020C94D1020C94D1020C94D102F4
:100040000C9471130C94D1020C94E1130C94BB1317
:100050000C94D1020C94D1020C94D1020C94D102D4
:100060000C9413140C94D1025F00020204040304E4
:10007000050C0BFFFE08FE08FE016A032C0471202C
:100080000500CC09210882C4C991F2082207336D0A
:100090004BB202231087447CCAA81C3365548E9946
:1000A00032AA012410A53C6B1E2AA938E28849A572
:1000B000A1230025158AC49DD44A65552355499529
:1000C000544649E5A8725600261188C4AC862A23F6
:1000D00095A186494B73A4A5002706316DCA002857
:1000E0000BA4B47A8C4ABA754601290AA4B44A46CC
:1000F000D974C91A2A09555C6B55AD66042B0B558A
:100100004C6B4671C88C22002C0742B4C9480A2D9A
:1001100006135CCA002E0622C4C9082F0A84C47ABA
:1001200099638E3903300E8544DB52238D34D248D7
:1001300023A905310984459B9ABE4600320C8544AB
:10014000DB52236929F33802330E8544DB522349FD
:100150008D461A492D00340B8544EB95549A6364FF
:1001600039350D8544CB2BA391D14823A905360EF3
:100170008544DB52238FA4461A492D00370A844454
:10018000CBA1638E2E00380E8544DB5223A9A546F1
:100190001A492D00390E8544DB52238DA4461E4991
:1001A0002D003A0752C4C988233B0972B4C9882379
:1001B00029003C0956CC3B9236D6583D083554CBE5
:1001C000D070083E0A56CC8BC61A4B1B013F0A85DD
:1001D00044DBB2A5CCB4094012A93CFD465A66984E
:1001E000E248FE5432939A1E11411289433CCAD40C
:1001F000C61B468DA21E2366A4E608420E8744CC89
:10020000694935A425951C430143108744ECAA474E
:10021000461B6AA8518DE24800440F88C4CCADA3A8
:10022000565A69A5954E6302450E86C4CB25938A1E
:1002300023AA28931C23460E86C4CB25934C2A8ED2
:10024000A8A21E11470E8744ECAA47461BCAA15517
:10025000962B48128944CD482369A9E518514B2DA6
:10026000B51A6904490984C4CA48D2D7084A0C8619
:10027000C4EBC81A69E42BCA094B1189C4CC88762F
:100280009619A90C8746525B230E4C0F86C4CBC827
:100290001A69A4914632C931024D158B44CEC82348
:1002A000ED9954924925995492D18CD652234E11EE
:1002B00088C48C5E3ACE38524C23C699D54E004F36
:1002C0000E8744ECAEF4C8238FAC729E00500F87AB
:1002D00044CC694925D5901A6A3432005113983CB0
:1002E000EC46396AA595562349A5D148192A0052EA
:1002F0000D88C4CC2D3DF3D0D235D200530D86C429
:10030000DB39F2D068E811D702540E86C4CB915C79
:1003100051238D34D22301551088C4CC484B471D3E
:1003200075D451479D4704561188C4CC484B479D0E
:1003300055462A2395A1C61A57158B44CE486A49BB
:1003400019CDA8928A2AA9BC36D21A6909581088F0
:10035000C4CC484BC795D1C61BA599D51159118856
:10036000C4CC484B679591CA50638D351C115A0B0C
:1003700086C4CB91F57CEB31025B08A334CA50FEF6
:100380001A5C0C84C44ACE28679433CA015D08A362
:1003900034CAF2D7105E0A65546B4679A65A075FD5
:1003A000061634CB01600623748A14610954C4CA4A
:1003B00056238D01620E86C48B461A69641D71C472
:1003C000B50063095544DB925BA605640E86C4FB49
:1003D000461AA931E288232D0365095544DB52E30F
:1003E0004623660C85C4EA52498EA8CD9100670D5C
:1003F00086343B8A5339F7D8632400680E86C48B51
:10040000461A69641D71C41105690A84C49AD470BE
:10041000BA46006A09A3B49ABDBC46026B0E864474
:100420008B461A69648D38A2B2066C0884C4CAF47B
:100430006B046D0D5AC48D92EA11E5887244036E07
:100440000B56C48B52471C7144016F0C56C4DB48D9
:1004500072C411D54800700D76B48B52471C718C54
:10046000A4D106710E77B4DB505249A5A6D250A391
:1004700011720954C48A1A239A00730954C4DA9079
:10048000230E05740973445A52439902750B56C4DE
:100490008B1C71C4919601760B56C4CBB2A2CA1ABA
:1004A0004900770C5944CDF28A4A65A59109780A2A
:1004B00056C4CBB2B24ED600790D76B4CBB2A2CA36
:1004C0001AC9AD11007A085544CB25CD317B0AA459
:1004D000B4AA9296966E017C068146CB217D0AA431
:1004E000B48A96B6922E097E0726DCDB520B0000FA
:1004F0000004FFFF000000000000240027002A0085
:1005000000000000250028002B0000000000230050
:100510002600290004040404040404040202020264
:1005200002020303030303030102040810204080B6
:100530000102040810200102040810200000000835
:10054000000201000003040700000000000000009A
:10055000321511241FBECFEFD8E0DEBFCDBF12E0B1
:10056000A0E0B1E0EAECF9E302C005900D92AC31F5
:10057000B107D9F728E0ACE1B2E001C01D92A8357F
:10058000B207E1F712E0C9EAD2E004C02197FE0108
:100590000E94841AC83AD107C9F70E9438160C94F1
:1005A000E31C0C940000662329F06A3019F0862FB2
:1005B00090E008958FEF9FEF0895AF92BF92CF9292
:1005C000DF92EF92FF920F93CF93DF93EC01DA016A
:1005D0007901942F9770E1E0F0E09F01092E01C0AE
:1005E000220F0A94EAF7522F6E018AE8C80ED11C36
:1005F000F601808140E0823018F4422F813049F1C9
:100600005D01F8EFAF22E8ADF9AD28813981D9015C
:1006100050968C918A9D90018B9D300D1124620F14
:10062000731FDF01A60FB71F01111AC0EA0EFB1ED0
:100630008C91842B85278D93AE15BF05C9F7DF916B
:10064000CF910F91FF90EF90DF90CF90BF90AF9040
:10065000089550E0D5CF440F550FE114F10479F31C
:100660003C91342B35273C939F5F9770E1E0EE1A65
:10067000F1089111F0CF2CAD3DADA20FB31FF601E3
:100680008081823028F4813009F051E041E0E5CFEB
:1006900051E0E3CF80E0089590E080E00895CF93AB
:1006A000DF93C7EBD7E08FAFEAADFBAD0190F081F0
:1006B000E02D8BEB97E00995EAADFBAD0280F3816D
:1006C000E02D8BEB97E0DF91CF9109949B01DC014A
:1006D0001896ED91FC9141E067E10994833081F037
:1006E00028F4813099F08230A9F008958730A9F07C
:1006F0008830C9F08430B1F4809180008F7D03C0D0
:10070000809180008F7780938000089584B58F77E3
:1007100084BD089584B58F7DFBCF8091B0008F7725
:100720008093B00008958091B0008F7DF9CFCF9372
:10073000DF93282F30E0F901E45CFA4F8491F9014E
:10074000E85DFA4FD491F901EC5EFA4FC491CC23E5
:10075000A1F081110E946E03EC2FF0E0EE0FFF1F5D
:10076000E65FFA4FA591B491EC91ED2381E090E022
:1007700009F480E0DF91CF91089580E090E0FACF16
:100780001F93CF93DF93282F30E0F901E45CFA4FF9
:100790008491F901E85DFA4FD491F901EC5EFA4FCA
:1007A000C491CC23A9F0162F81110E946E03EC2F67
:1007B000F0E0EE0FFF1FE050FB4FA591B4918FB713
:1007C000F894EC91111108C0D095DE23DC938FBF13
:1007D000DF91CF911F910895DE2BF8CFCF93DF9358
:1007E00090E0FC01E85DFA4F24918C5E9A4FFC0189
:1007F00084918823C9F090E0880F991FFC01EA508A
:10080000FB4FA591B491FC01E050FB4FC591D491F1
:1008100061110DC09FB7F8948C91209582238C9321
:100820008881282328839FBFDF91CF91089562306C
:1008300051F49FB7F8943C91822F809583238C9339
:10084000E8812E2BEFCF8FB7F894EC912E2B2C93C1
:100850008FBFEACF3FB7F8948091B8029091B90268
:10086000A091BA02B091BB0226B5A89B05C02F3F4C
:1008700019F00196A11DB11D3FBFBA2FA92F982FC6
:100880008827BC01CD01620F711D811D911D42E0C1
:10089000660F771F881F991F4A95D1F708958F9289
:1008A0009F92AF92BF92CF92DF92EF92FF926B0135
:1008B0007C010E942A044B015C01C114D104E104B3
:1008C000F104B9F00E942A04681979098A099B0980
:1008D000683E73408105910580F321E0C21AD1087A
:1008E000E108F10888EE880E83E0981EA11CB11C77
:1008F000E4CFFF90EF90DF90CF90BF90AF909F90AC
:100900008F90089508950895AF92BF92CF92DF928D
:10091000EF92FF920F931F93CF93DF936C017B01B4
:100920008B01040F151FEB015E01AE18BF08C01745
:10093000D10759F06991D601ED91FC910190F081B8
:10094000E02DC6010995892B79F7C501DF91CF917B
:100950001F910F91FF90EF90DF90CF90BF90AF90DD
:100960000895FC01538D448D252F30E0842F90E0B5
:10097000821B930B541710F0CF960895019708959A
:10098000FC01918D828D981761F0A28DAE0FBF2F63
:10099000B11D5D968C91928D9F5F9F73928F90E0B9
:1009A00008958FEF9FEF0895FC01918D828D981728
:1009B00031F0828DE80FF11D858D90E008958FEF65
:1009C0009FEF0895FC01918D228D892F90E0805C2E
:1009D0009F4F821B91098F73992708958EE093E0B2
:1009E0000E94E20421E0892B09F420E0822F08957F
:1009F00080E090E0892B29F00E94EE0481110C9494
:100A000000000895FC01A48DA80FB92FB11DA35AB1
:100A1000BF4F2C91848D90E001968F739927848F1E
:100A2000A689B7892C93A089B1898C918370806441
:100A30008C93938D848D981306C00288F389E02DE2
:100A400080818F7D80830895EF92FF920F931F9393
:100A5000CF93DF93EC0181E0888F9B8D8C8D981371
:100A60001AC0E889F989808185FF15C09FB7F8947D
:100A7000EE89FF896083E889F989808183708064C9
:100A800080839FBF81E090E0DF91CF911F910F9114
:100A9000FF90EF900895F62E0B8D10E00F5F1F4F23
:100AA0000F731127E02E8C8D8E110CC00FB607FC32
:100AB000FACFE889F989808185FFF5CFCE010E94C0
:100AC0000205F1CFEB8DEC0FFD2FF11DE35AFF4F27
:100AD000F0829FB7F8940B8FEA89FB89808180624E
:100AE000CFCFCF93DF93EC01888D8823B9F0AA890B
:100AF000BB89E889F9898C9185FD03C0808186FDD9
:100B00000DC00FB607FCF7CF8C9185FFF2CF808127
:100B100085FFEDCFCE010E940205E9CFDF91CF9195
:100B20000895DC011A96ED91FC9130E020E00994E3
:100B3000DC011496ED91FC9130E020E040E060E1B2
:100B40000994DC011696ED91FC9130E020E040E044
:100B500069E10994DC011696ED91FC9130E020E00A
:100B600040E068E109949A01DC011696ED91FC9150
:100B7000462F67E10994EF92FF920F931F93CF9353
:100B8000DF931F92CDB7DEB77C018B01D8016C914A
:100B9000673129F150F46531A0F40F90DF91CF91C6
:100BA0001F910F91FF90EF9008956A3118F16E3FF9
:100BB000A1F7F8014181498369E2C7010E949105CB
:100BC0000BC0F80141814983D7011696ED91FC9144
:100BD00030E020E0C70109950E5F1F4FD7CFF80125
:100BE00081818983AE014F5F5F4F61E0C7010E9441
:100BF000B305F2CF0F5F1F4FD7011696ED91FC9111
:100C000030E020E040E0C7010995C0CF462FDC016D
:100C10001696ED91FC9130E020E066E10994462FB4
:100C2000DC011696ED91FC9130E020E065E109943D
:100C3000EF92FF920F931F93CF93DF93EC01042F5A
:100C400079016D3009F446C050F46B30C9F1693058
:100C500009F49FC06A3009F465C080E046C06E3078
:100C600009F452C06F3099F70E94AA05F701138169
:100C7000110F110F110F6C89160F60E4CE010E9445
:100C80000F06612F62956F706061CE010E940F06A2
:100C9000612F6F70CE010E940606F7016481606BC0
:100CA000CE010E940606F701408151816281660FE4
:100CB000660F660FCE010E94B3050150A1F72EC04A
:100CC00063E171E0442311F06EE071E0CE010E9417
:100CD000BB050AC0411110C067E071E00E94BB056E
:100CE000E881F98182898C8B81E0DF91CF911F911E
:100CF0000F91FF90EF90089560E071E00E94BB05B6
:100D0000E881F9818389EFCF0E94AA0561E8CE01CD
:100D10000E940F06602FCE010E940606CE010E949F
:100D2000A105E2CFEA85FB8530E020E040E068E203
:100D3000CE010995EE81FF8130E020E040E064E1E2
:100D4000CE01099541E06BE4CE010E949105E88156
:100D5000F981448169E2CE010E94910540E06BE493
:100D6000CE010E949105E881F981448169E2CE01BA
:100D70000E94910541E06BE4CE010E949105E8815B
:100D8000F981458169E2CE010E94910568E171E037
:100D90009DCF8DE491E0998388831C8AA5CFDC01E7
:100DA0001896ED91FC9130E020E040E069E1099473
:100DB000DC011896ED91FC9130E020E040E068E124
:100DC0000994CF93DF931F92CDB7DEB76983BE013D
:100DD0006F5F7F4F0E9466030F90DF91CF91089560
:100DE000EF92FF921F93CF93DF93EC01162F7A01BE
:100DF0000E94D80660E4CE010E94E106E885F985EC
:100E00009701412F67E1CE010995CE01DF91CF9186
:100E10001F91FF90EF900C94CF06EF92FF921F93DB
:100E2000CF93DF93EC01142F7901663181F138F40F
:100E3000643109F44BC0653179F080E022C068313B
:100E4000C9F150F16931C9F78091A502882391F168
:100E5000CE010E94CF062EC08091A502882319F0F2
:100E6000CE010E94CF06CE010E94D80660E0CE01DE
:100E70000E94E106612FCE010E94E10681E080938D
:100E8000A502DF91CF911F91FF90EF900895642FFD
:100E90000E94E10681E0F5CF8091A502882319F038
:100EA000CE010E94CF06A701193138F4612FCE017F
:100EB0000E94F0061092A502EDCF68E1CE010E94DB
:100EC000F006185188E1E80EF11CEDCF8E898F3FB6
:100ED00011F488E78E8BE885F9859701412F64E14D
:100EE000CE01DF91CF911F91FF90EF9009940F9366
:100EF000FC01E05CFF4F0190F081E02D4E1B5F0B89
:100F0000DC01D496ED91FC9109950F910895CF9352
:100F1000DF93FC01A081B18182AD90E09C0143E0B0
:100F2000220F331F4A95E1F737AF26AF50962C9129
:100F3000509748E0249F9001112435AF24AF23AD92
:100F400030E0B90153E0660F771F5A95E1F7EF01E2
:100F5000C05CDF4F7983688351964C915197E901CA
:100F6000C80FD91F50E04C175D0718F4CA01821B47
:100F7000930BEF01CE5BDF4F79836883229623E0EA
:100F8000880F991F2A95E1F7860F971F9983888309
:100F9000229654968D919C91559799838883E85B0E
:100FA000FF4F56968D919C9191838083DF91CF91D5
:100FB00008950F931F93FC01E25BFF4F0190F081B6
:100FC000E02DDC01A05BBF4F0D90BC91A02D4A1716
:100FD0005B0740F4E017F10748F00417150730F0FD
:100FE00080E019C0E017F107C0F3FACFFC01E65B1F
:100FF000FF4F40815181845B9F4FFC018081918133
:101000006817790758F481E04217530720F081E010
:101010002617370728F71F910F9108954217530796
:10102000B0F3DECF2F923F924F925F926F927F92FA
:101030008F929F92AF92BF92CF92DF92EF92FF92E8
:101040000F931F93CF93DF93CDB7DEB72A970FB6D9
:10105000F894DEBF0FBECDBF9A878987865B9F4F0E
:101060009A838983FC0111821082E985FA85EA5B03
:10107000FF4F4080518029853A85245B3F4F3C8358
:101080002B83F90151824082E985FA85EE5BFF4F9F
:101090002080318029853A85225B3F4F3E832D8316
:1010A000F90131822082E985FA85EC5BFF4F60808F
:1010B000718029853A85205B3F4F38872F83F9015E
:1010C00071826082E985FA85E85AFF4FE080F180FD
:1010D000E985FA85EC5AFF4FA080B180E985FA8551
:1010E000EA5AFF4FC080D180E985FA85EE5AFF4F5A
:1010F0008080918087019501A601B40189859A8538
:101100000E94D90729853A852C573F4F3A8729876E
:1011100081111BC0F90110822A960FB6F894DEBF28
:101120000FBECDBFDF91CF911F910F91FF90EF9038
:10113000DF90CF90BF90AF909F908F907F906F90F7
:101140005F904F903F902F90089581E0E985FA8558
:1011500080838114910421F0E981FA819182808257
:10116000A414B50420F4EB81FC81B182A0822C147C
:101170003D0420F4ED81FE81D182C082E614F704A3
:1011800058F6EF81F885F182E082C6CF0F93CF93B6
:10119000DF93E02FDC01AC57BF4FFC91FF2309F434
:1011A00060C02115310509F45CC02230310538F0EA
:1011B000023009F04AC06F5F7F4F621B730B0E2F26
:1011C0000170E0FD52C0FC01E25BFF4F0190F08135
:1011D000E02D4E175F0708F444C0FC01E05BFF4FB1
:1011E0000190F081E02D4E175F07D8F5FC01E45B1C
:1011F000FF4F0190F081E02DDC01A65BBF4F0D9009
:10120000BC91A02D260F371F2617370738F56E170C
:101210007F0718F59F0121503109A217B30708F580
:101220006A177B0708F4BD012E173F0708F4F90180
:10123000E61BF70BEC01AEA9BFA914960D90BC916B
:10124000A02D9F01FD0109950CC0033009F0B7CF17
:101250004F5F5F4F421B530BB2CFBD016E177F072D
:10126000E0F2DF91CF910F910895FC01E65BFF4F13
:101270000190F081E02D6E177F0798F3FC01E45B8D
:10128000FF4F0190F081E02D6E177F0750F7FC01B2
:10129000E05BFF4F0190F081E02DDC01A25BBF4FCE
:1012A0000D90BC91A02D240F351F24173507A8F4ED
:1012B0004E175F0788F49F0121503109A217B30729
:1012C00080F64A175B0708F4AD012E173F0708F4B4
:1012D000F901E41BF50BAECFAD014E175F0708F621
:1012E000EDCF213069F038F0223079F0840F911D74
:1012F00047FD9A950895860F911D67FD9A9508956B
:10130000841B910947FD93950895861B910967FDFC
:1013100093950895213069F038F0223079F0861BDA
:10132000910967FD93950895840F911D47FD9A9546
:101330000895860F911D67FD9A950895841B910964
:1013400047FD939508953F924F925F926F927F92DF
:101350008F929F92AF92BF92CF92DF92EF92FF92C5
:101360000F931F93CF93DF937C01162F442EEC0134
:10137000C25ADF4F5E806F806C018AE8C80ED11CB4
:1013800078847518312E711608F4372C8C809D8066
:101390000E85202F462D652D8A819B810E94710923
:1013A0005C01202F462D652DC4010E948A09AC01E5
:1013B000442079F08C85F6018083232D30E0B5013F
:1013C000C7010E94C608171548F017196394512CDD
:1013D000D7CF8B858111F7CF8D85EDCF150D1E836E
:1013E0006F82DF91CF911F910F91FF90EF90DF906F
:1013F000CF90BF90AF909F908F907F906F905F90B5
:101400004F903F900895DC011A964C911A97ED91F8
:10141000FC911197249130E0042E02C03595279558
:101420000A94E2F7842F860F883068F0319611967F
:10143000FC93EE93E49198E0941B01C0EE0F9A9513
:10144000EAF72E2B88501A968C938FEF9FEF01C0EE
:10145000880F6A95EAF7809582230895FC01E60FCC
:10146000F11D849190E0982F88273196E4918E0F9A
:10147000911D08954F925F926F927F928F929F92EB
:10148000AF92BF92CF92DF92EF92FF920F931F9392
:10149000CF93DF93EC016B018A017901FC01E459E0
:1014A000FF4F8081813009F44BC008F43EC0823088
:1014B00009F451C0833009F459C0FE01E05AFF4FCE
:1014C000D182C082329611830083389780819181C6
:1014D00047962FEFE216F10411F008F0F2C0E1E6B2
:1014E000EE16F10408F44DC0FE01E058FF4F2081D4
:1014F0003181820F931F9C012F5F3F4FF90144916F
:10150000411148C090E080E0DF91CF911F910F9191
:10151000FF90EF90DF90CF90BF90AF909F908F9013
:101520007F906F905F904F900895FE01E45AFF4FB7
:101530000190F081E02DCE010995080F191FBDCF54
:10154000FE01E45AFF4F0190F081E02DCE01099594
:10155000C81AD90AB2CFFE01E45AFF4F0190F081B8
:10156000E02DCE010995081B190BA7CFFE01E45A07
:10157000FF4F0190F081E02DCE010995C80ED91ED4
:101580009CCFF1E4EF16F10408F4B5CFFE01E25868
:10159000FF4FADCFFC0144914E151F0409F08CC0E4
:1015A0000296009709F4AECF7E01FEE5EF0EF11C26
:1015B000F70191838083128673966081C7010E9430
:1015C000030AF701808774966081C7010E94030AAD
:1015D000982EF70181875E01FAE8AF0EB11CF50184
:1015E0009081F701948781E0911180E0F701858770
:1015F000FE01ED58FF4FC0806C2DC7010E94030A09
:10160000582EFE01EC58FF4FD0806D2DC7010E946F
:10161000030A482EFE01EB58FF4F1081612FC701CE
:101620000E94030A9FEF910F01E010E0980101C0B2
:10163000220F9A95EAF7882E821AF7016084161411
:101640000CF0ADC0CA94C80101C0880FCA94EAF773
:10165000581A7684490CDA94A80101C0440FDA9430
:10166000EAF7F42FF4194F2E272D4F2F652DF70190
:10167000828193810E9471096C01F70193838283B7
:10168000272D442D652D848195810E948A09F701BB
:1016900095838483F1E07F1609F485C07F1608F4F2
:1016A0003FC022E0721609F48DC0E3E07E1609F413
:1016B0009DC0BC0196013EC0F9012491820F911D8D
:1016C0001ACFFE01EE57FF4F00811181080F191F3D
:1016D000680160E0C6010E942E0A080F191F62E02F
:1016E000C6010E942E0AF4E0CF0ED11C8E159F0574
:1016F00080F3F801849190E0982F88273196E49147
:101700008E2B009709F4FECEE816F90619F4C801ED
:10171000039647CFF8013296E4910E0F111DE9CFE1
:101720009601260D311D67FC3A95BC01690D711DAE
:1017300097FC7A958B01AC01B601CE010E94D907C6
:10174000882369F1F701168217828E0101591F4F14
:101750006E01F0E7CF0ED11CF8016081C7010E9435
:10176000030A682EF6016081C7010E94030A782EE1
:1017700040E0662DCE010E94A30941E0672DCE0115
:101780000E94A30961E0C7010E94030A8111F0CF02
:10179000F7018781891504F38485F5018083882DFD
:1017A000880C990BB1CE0919110997FC1395960174
:1017B0002F5F3F4FBC01660D711D67FC7A95C00E0F
:1017C000D11EB8CFA8014619510967FC539596015F
:1017D0002F5F3F4F0919110997FC1395BC016F5FEB
:1017E0007F4F800F911FC40ED51EA4CF9601290DE7
:1017F000311D97FC3A950619110967FC1395BC0138
:101800006F5F7F4F800F911F95CFCF92DF92EF9246
:10181000FF920F931F93CF93DF931092D3078BE91F
:10182000C82E81E0D82EF12CE12C0AE010E0D0E0A7
:10183000C0E0F60161916F01E091BD07F091BE0734
:101840008BEB97E009958F3F980719F18E3F2FEFAB
:10185000920779F39C01A801BE018BEB97E00E94EF
:101860003A0A20912708213059F038F0223059F0F7
:10187000233061F0E80EF91EDCCFC80FD91FFACF74
:10188000080F191FF7CFC81BD90BF4CF081B190B72
:10189000F1CFC701DF91CF911F910F91FF90EF9092
:1018A000DF90CF900895AF92BF92CF92DF92EF92E8
:1018B000FF920F931F93CF93DF9300D000D01F921E
:1018C000CDB7DEB78C01DC01DA96AC90DA97DB9607
:1018D000EC90DB97ED91FC91B188FE2CD12CC12CC2
:1018E000D801ED91FC9111978089D8962D913C916A
:1018F0001C82FD828B83B8E08B9FC00111248C9DDC
:10190000A0018D9D500D9C9D500D1124240F351F5D
:101910003A832983D8011496ED91FC919E012F5FA3
:101920003F4F41E06FE0C8010995F3948F2D8E1968
:101930008A1528F4BFEFCB1ADB0AFB1488F20F904C
:101940000F900F900F900F90DF91CF911F910F91FB
:10195000FF90EF90DF90CF90BF90AF9008950F93DE
:101960001F93CF93DF938C01C62F642FCC32E8F402
:10197000CA3208F041C0C83271F1C93209F442C01C
:1019800080E0C034D0F1CF73F801EC0FF11D868DEB
:101990008F3F91F1C031E0F00E94970321E0892B45
:1019A00009F420E0F801218F27C0CD3289F140F3FE
:1019B00084EB8C0F823020F7CF73C00FD12FD11D55
:1019C0008E8D411133C061E00E94EE0360E08E8D88
:1019D0000E94C00311C0025E1F4FD0E0F801819148
:1019E0008F018F3F31F061E0D03108F062E00E945A
:1019F000EE03DF5FD63191F781E0DF91CF911F9148
:101A00000F91089570E090E080E00E944F04F4CFC1
:101A100085E090E0433010F082E090E0880F991F5D
:101A2000880F991F05970197F1F7E6CF62E00E94B2
:101A3000EE03E2CF8FB7F8948091A4028FBF089590
:101A40008EBD00000DB407FEFDCF8EB508958CBD90
:101A50009DBD089520918102260F3327331F213227
:101A60003105ECF42091E202FC0190E080E02430AA
:101A700069F082E00895A09181022191AC014F5953
:101A80005D4FA40FB52FB11D2C930196861798F3C7
:101A900080918102680F6093810280E0089581E067
:101AA00008951092E20281E08093E1021092DC023C
:101AB00061E082E10E94C00361E083E10E94C00313
:101AC000E9EBF0E080818E7F808380818D7F808351
:101AD00088E48093B80085E48093BC000895CF9398
:101AE000DF9391E0909360028823B9F0C091B80031
:101AF000D091BA008091BC008A7B8093BC0060E0EA
:101B000082E10E94C00360E083E10E94C0030E9462
:101B1000510DD093BA00C093B800DF91CF910895D2
:101B20000895E091E9028091E802E81730F4F0E0CE
:101B3000E651FD4F808190E008958FEF9FEF08956B
:101B40009091E9028091E8022FEF3FEF981748F457
:101B5000E92FF0E0E651FD4F208130E09F5F909348
:101B6000E902C90108958091E8029091E902891B78
:101B7000990B0895CF92DF92EF92FF920F931F93EC
:101B8000CF93DF937C01CB018A0120910D032223A7
:101B900089F0EB016B01C40ED51ECC15DD0569F093
:101BA0006991D701ED91FC910190F081E02DC70181
:101BB0000995F3CF642F0E942A0DC801DF91CF91C0
:101BC0001F910F91FF90EF90DF90CF900895CF93EA
:101BD000DF931F92CDB7DEB7698320910D032223D7
:101BE000F9F020910A03203258F021E030E0FC01A6
:101BF0003383228390E080E00F90DF91CF910895AE
:101C000080910B03E82FF0E0E05CFD4F9981908319
:101C10008F5F80930B0380930A0381E090E0ECCF09
:101C200061E0CE0101960E942A0DF7CFCF92DF929C
:101C3000EF92FF920F931F93CF93DF93D0910A03FC
:101C400081E0D13208F09CC0C0910C030E942A04AC
:101C50006B017C018091E20281116CC082E0809373
:101C6000E20281E08093E1028FEF8093E002109224
:101C7000DF02D093DE02A0E4B2E0ECEBF2E080E021
:101C8000D8138DC01092DD028091DD02CC0FC82BDD
:101C9000C093DD028091DC02813009F084C0109293
:101CA000DC020E942A046B017C018091DD0280939A
:101CB000BB008091E4029091E502A091E602B09110
:101CC000E702892B8A2B8B2BA1F00E942A0400911A
:101CD000E4021091E5022091E6023091E7026C19CE
:101CE0007D098E099F09061717072807390708F489
:101CF00042C08091BC0083FDD8CF85EC8093BC00AE
:101D00000E942A046B017C018091E202823009F476
:101D10004CC08091E0028F3F09F469C08091E002DD
:101D2000803209F466C08091E002803309F463C018
:101D300084E026C08091E4029091E502A091E60241
:101D4000B091E702892B8A2B8B2B09F483CF0E9459
:101D50002A040091E4021091E5022091E6023091FC
:101D6000E7026C197D098E099F09061717072807D6
:101D7000390708F06FCF8091E3020E946F0D85E074
:101D800010920B0310920A0310920D03DF91CF9172
:101D90001F910F91FF90EF90DF90CF9008959D914C
:101DA00091938F5F6DCF85EEA9CF8091E4029091E2
:101DB000E502A091E602B091E702892B8A2B8B2BDA
:101DC00009F4A2CF0E942A040091E4021091E502D6
:101DD0002091E6023091E7026C197D098E099F0976
:101DE000061717072807390708F08ECFC4CF80E001
:101DF000C7CF82E0C5CF83E0C3CFCF93DF93EC01A1
:101E0000962F683109F445C0B901993130F4943105
:101E100099F0973159F080E006C0993109F45BC020
:101E20009032C9F781E0DF91CF91089550E08BEABD
:101E300093E00E94BA0DF6CF8C859D85AE85BF8557
:101E4000892B8A2B8B2B71F4E881F981A585B0E071
:101E500020EA36E841E050E00E94651A6C877D87F1
:101E60008E879F871092E9021092E80210920B036E
:101E700010920A030E94510D82E894E09093A70209
:101E80008093A60283E894E09093A9028093A8022D
:101E9000C9CF2C853D854E855F8560E074E284EF77
:101EA00090E00E94431A2051310941095109569589
:101EB0004795379527952093B8008E8990E09595A2
:101EC000879591E090930D0380930C0310920B0380
:101ED00010920A03A7CF8BEA93E00E94160EA2CFBE
:101EE0001F93CF93DF93162FCDE4D8E0A985BA8551
:101EF000988121E020930D0390930C0310920B0323
:101F000010920A03ED91FC9111970190F081E02D60
:101F1000682FCD01099589859A85DC01ED91FC91A9
:101F20000190F081E02D612F099589859A85DF91D7
:101F3000CF911F910C94160ECF93DF9320915208EE
:101F400030915308232BD1F0D62FC82F80915408FD
:101F5000909155080E94270D60E0809151080E94E1
:101F6000C0038C2F0E94200D8D2F0E94200D61E058
:101F700080915108DF91CF910C94C003DF91CF91F4
:101F80000C94700FCF92DF92EF92FF920F931F93FA
:101F9000CF93DF936C01EB017B01E40EF51E10E0A3
:101FA00000E0CE15DF0561F06991D601ED91FC915D
:101FB0000190F081E02DC6010995080F191FF1CF9E
:101FC000C801DF91CF911F910F91FF90EF90DF90AB
:101FD000CF900895CF92DF92EF92FF920F931F93CD
:101FE000CF93DF93EC016C0124E0C20ED11CFC0105
:101FF000E057FF4F0190F081E02DC60109958E3F1B
:10200000EFEF9E07D8F48E010C561F4FF801408168
:1020100051817E01F2E9EF0EF11CF70160817181BF
:102020009C01C6010E943A0AC059DF4F2881213025
:10203000C1F078F02230B9F02330E9F081E090E08F
:10204000DF91CF911F910F91FF90EF90DF90CF9094
:102050000895F70120813181820F931F918380833E
:10206000EDCFF801F7CFF70120813181281B390B23
:1020700031832083E3CFF801F7CF089590E080E02B
:1020800008958F929F92AF92BF92CF92DF92EF927C
:10209000FF920F931F93CF938C01C62F809152080C
:1020A00090915308892B21F1809154089091550803
:1020B0000E94270D60E0809151080E94C0038C2F80
:1020C000806C0E94200D80E00E94200DD8018C932E
:1020D00061E080915108CF911F910F91FF90EF9097
:1020E000DF90CF90BF90AF909F908F900C94C003E3
:1020F000809156089091570820914D0831E0309317
:102100000D0320930C0310920B0310920A036068D6
:10211000DC01ED91FC910190F081E02D0995809119
:102120005608909157080E94160EC0914D080E94C3
:102130002A046B017C018091E202811164C081E07C
:102140008093E2028093E1029FEF9093E00210926D
:10215000DF021092DE028093DD028091DD02CC0F5F
:10216000C82BC093DD028091DC02813009F0A6C04B
:102170001092DC020E942A046B017C018091DD0236
:102180008093BB008091E4029091E502A091E60269
:10219000B091E702892B8A2B8B2BA1F00E942A0495
:1021A0008090E4029090E502A090E602B090E702F1
:1021B0006C197D098E099F0986169706A806B9062F
:1021C00008F442C08091BC0083FDD8CF85EC809399
:1021D000BC000E942A046B017C018091E2028130E4
:1021E00009F46EC08091DF0281118CC08091DF0202
:1021F000ACEBB2E0EAEEF2E090E0981751F12D91ED
:1022000021939F5FFACF8091E4029091E502A09123
:10221000E602B091E702892B8A2B8B2B09F48BCF36
:102220000E942A048090E4029090E502A090E602C9
:10223000B090E7026C197D098E099F0986169706F2
:10224000A806B90608F077CF8091E3020E946F0DCF
:1022500080E01092E9028093E80280915608909104
:102260005708DC01ED91FC910084F185E02D099582
:10227000892B09F449C08091560890915708DC01D8
:10228000ED91FC910284F385E02D0995F80180839E
:102290008091560890915708DC01ED91FC910084E3
:1022A000F185E02DCF911F910F91FF90EF90DF907E
:1022B000CF90BF90AF909F908F90099485EE87CF7D
:1022C0008091E4029091E502A091E602B091E702CC
:1022D000892B8A2B8B2B09F480CF0E942A048090B3
:1022E000E4029090E502A090E602B090E7026C193B
:1022F0007D098E099F0986169706A806B90608F07B
:102300006CCFA2CF81E074CFCF911F910F91FF903E
:10231000EF90DF90CF90BF90AF909F908F900895F7
:102320001F93CF93DF931F92CDB7DEB7182F60E2D4
:10233000CE0101960E94411069816F70612B80E28D
:102340000E949C0F64E670E080E090E00E944F04E1
:102350000F90DF91CF911F910895FB010190002014
:10236000E9F73197AF01461B570BDC01ED91FC916A
:102370000280F381E02D09948F929F92AF92BF92D9
:10238000EF92FF920F931F93CF93DF93CDB7DEB7FA
:10239000A1970FB6F894DEBF0FBECDBF7C01FA0146
:1023A000CB0119A2223008F42AE08E010F5D1F4FE5
:1023B000822E912CB12CA12CBF01A50194010E9469
:1023C000431AF901CA016A300CF5605DD8016E93B9
:1023D0008D01232B242B252B79F790E080E010979B
:1023E00021F0BD01C7010E94AD11A1960FB6F8946E
:1023F000DEBF0FBECDBFDF91CF911F910F91FF9038
:10240000EF90BF90AF909F908F900895695CDECF62
:102410004F925F926F927F928F929F92AF92BF92F4
:10242000CF92DF92EF92FF920F931F93CF936B01A6
:102430007C01742EAC019B010E94D71C68EA71E0FC
:10244000811126C046015701E894B7F82FEF3FEFFE
:102450004FE75FE7C501B4010E94D71C81110CC092
:102460002FEF3FEF4FE75FE7C501B4010E94061B66
:102470006CEA71E0181664F02FEF3FEF4FE75FE46E
:10248000C701B6010E94651C1816ACF460EB71E040
:1024900087EB97E0CF911F910F91FF90EF90DF9026
:1024A000CF90BF90AF909F908F907F906F905F90F4
:1024B0004F900C94AD112FEF3FEF4FE75FECC7014A
:1024C000B6010E94061B87FDE1CF20E030E0A901A4
:1024D000C701B6010E94061B10E000E087FF0AC09A
:1024E0006DE287EB97E00E94EA0F8C01F7FAF09417
:1024F000F7F8F094C0E060E070E080E09FE37C16C5
:1025000041F020E030E040E251E40E940B1BCF5F3D
:10251000F6CFA70196010E949A1A2B013C010E9456
:10252000841B4B015C012AE0BC01A40187EB97E00E
:102530000E94BC117C01E00EF11ECC23D1F1C5013B
:10254000B4010E94B31B9B01AC01C301B2010E9404
:10255000991A4B015C016EE287EB97E00E94EA0F4B
:10256000E80EF91EC15028F120E030E040E251E4CD
:10257000C501B4010E946A1C2B013C010E94841B0E
:102580004B01B12CA12C2AE0B501A40187EB97E007
:102590000E94BC11E80EF91EC501B4010E94B31BD4
:1025A0009B01AC01C301B2010E94991A4B015C016D
:1025B000D9CFC701CF911F910F91FF90EF90DF907E
:1025C000CF90BF90AF909F908F907F906F905F90D3
:1025D0004F900895CF92DF92EF92FF92CF93DF93C7
:1025E0006C01990FEE08FF08F7FE23C06DE28EE044
:1025F00093E00E942405EC0144275527BA014C19A9
:102600005D096E097F092AE08EE093E00E94BC110B
:10261000C80FD91F64EB71E08EE093E00E94AD110A
:102620008C0F9D1FDF91CF91FF90EF90DF90CF90A7
:1026300008952AE0B701A6018EE093E00E94BC1144
:10264000EC01E8CF0C94AD11FC01A081B181509652
:102650002C9182AD38E0839FC0011124289FA001F6
:10266000299F500D112470E060E080AD91AD0C9475
:10267000DC1C85ED8093BC008091E4029091E50222
:10268000A091E602B091E7020796A11DB11D23E0DB
:10269000B695A795979587952A95D1F72091BC0077
:1026A00024FD03C01092E20208954091E40250918B
:1026B000E5026091E6027091E702452B462B472B1D
:1026C00069F30097A105B10541F02AE22A95F1F7D7
:1026D00000C00197A109B109E1CF8091E3020C94F8
:1026E0006F0D1F920F920FB60F9211242F933F93ED
:1026F0008F939F93AF93BF938091B4029091B50253
:10270000A091B602B091B7023091B30223E0230F3B
:102710002D3758F50196A11DB11D2093B30280936A
:10272000B4029093B502A093B602B093B702809121
:10273000B8029091B902A091BA02B091BB02019681
:10274000A11DB11D8093B8029093B902A093BA0263
:10275000B093BB02BF91AF919F918F913F912F9109
:102760000F900FBE0F901F90189526E8230F02962A
:10277000A11DB11DD2CF1F920F920FB60F9211243F
:102780002F933F934F935F936F937F938F939F9379
:10279000AF93BF93EF93FF938EE093E00E94020507
:1027A000FF91EF91BF91AF919F918F917F916F9129
:1027B0005F914F913F912F910F900FBE0F901F90FF
:1027C00018951F920F920FB60F9211242F938F938B
:1027D0009F93EF93FF93E0911E03F0911F0380817D
:1027E000E0912403F091250382FD1BC0908180912C
:1027F00027038F5F8F7320912803821741F0E091A8
:102800002703F0E0E25FFC4F958F80932703FF9151
:10281000EF919F918F912F910F900FBE0F901F906E
:1028200018958081F4CF1F920F920FB60F9211244A
:102830002F933F934F935F936F937F938F939F93C8
:10284000AF93BF93EF93FF938091B900887F803659
:1028500009F44AC0F0F5883209F4A7C018F58031B0
:1028600009F49BC0B8F4882309F4F9C0883009F44E
:1028700094C0FF91EF91BF91AF919F918F917F9104
:102880006F915F914F913F912F910F900FBE0F90DD
:102890001F901895883109F488C0803251F78093D1
:1028A000E00214C0803409F49DC040F48033B9F3D1
:1028B0008833F9F68093E00285ECB0C0803509F4E6
:1028C00085C0883509F496C0883499F60E9439137A
:1028D000D0CF883909F48CC038F5883729F050F406
:1028E000883611F0803729F683E08093E202109257
:1028F000A30257C0883809F47BC0803919F08038AA
:1029000009F0B7CF8091A302803208F071C0E09146
:10291000A30281E08E0F8093A3028091BB00F0E0C0
:10292000ED57FD4F80833DC0803B39F0E0F4803AA5
:1029300009F479C0883A09F09CCF84E08093E202E0
:102940001092820210928102E091A602F091A702F9
:1029500009958091810281110FC081E080938102ED
:102960001092610209C0803C09F4A6CF883C09F4AA
:10297000A3CF883B09F07DCFE091820281E08E0FEA
:1029800080938202F0E0EF59FD4F80818093BB007D
:10299000909182028091810229C08091DD02809312
:1029A000BB0085EC8093BC0064CF9091DF028091E6
:1029B000DE02981758F5E091DF0281E08E0F8093D8
:1029C000DF02F0E0E454FD4F8081E9CFE091DF02C7
:1029D00081E08E0F8093DF028091BB00F0E0E45431
:1029E000FD4F80839091DF028091DE029817C8F23C
:1029F00085E8D8CFE091DF0281E08E0F8093DF027F
:102A00008091BB00F0E0E454FD4F80838091E102AF
:102A100081115CCF81E08093DC0284EA8093BC006A
:102A20001092E20226CF85EC8093BC001092E20265
:102A30008091A302803230F4E091A302F0E0ED57E0
:102A4000FD4F10826091A30270E0E091A802F09126
:102A5000A90283E892E009951092A3020ACF10928E
:102A6000E00234CFCF93109211031092100388EE3E
:102A700093E0A0E0B0E08093120390931303A0933F
:102A80001403B093150329E631E030930F0320932C
:102A90000E0325EC30E030931B0320931A0324EC43
:102AA00030E030931D0320931C0320EC30E0309382
:102AB0001F0320931E0321EC30E030932103209369
:102AC000200322EC30E0309323032093220326ECF2
:102AD00030E03093250320932403109227031092B3
:102AE00028031092290310922A031092AE03109229
:102AF000AD038093AF039093B003A093B103B09361
:102B0000B2038BE791E09093AC038093AB0380E535
:102B100080935408109255081092BA071092B90782
:102B200083ED92E0909348088093470810924A08FA
:102B30001092490810924C0810924B081092D3073B
:102B40008DE891E09093B8078093B7071092BC0787
:102B50001092BB071092D0071092C7071092C807B7
:102B60001092C9071092CA078FEF8093D107809304
:102B7000D507E9EDF7E08FEE97E0CFEFC1938E1721
:102B80009F07E1F788E196E09093C0078093BF0725
:102B90008DE097E09093C2078093C1078DEF9EE090
:102BA0009093C4078093C3078FEA9CE09093C60775
:102BB0008093C50730E020E040E069E08BEB97E0D0
:102BC0000E94180610921608109215088DED92E0DA
:102BD0009093F0078093EF0787EB93E09093F407CF
:102BE0008093F30788E08093F5071092F607109220
:102BF0002408109244081092400881E08093450810
:102C00008093460885E991E09093F2078093F1075D
:102C10008BEB97E00E94870710920E0810920D0828
:102C200010921208109211088FEF9FEF90931008E6
:102C300080930F089093140880931308E091F10794
:102C4000F091F2070280F381E02D8BEB97E009957C
:102C50008CE493E09093180880931708109227084B
:102C6000C093E407C093E507C093E607CF910895AA
:102C7000CF93DF931F92CDB7DEB7789484B582608F
:102C800084BD84B5816084BD85B5826085BD85B510
:102C9000816085BD80916E00816080936E0010928E
:102CA0008100809181008260809381008091810009
:102CB000816080938100809180008160809380009A
:102CC0008091B10084608093B1008091B0008160F8
:102CD0008093B00080917A00846080937A00809124
:102CE0007A00826080937A0080917A00816080937C
:102CF0007A0080917A00806880937A001092C100F7
:102D0000E0911E03F0911F0382E08083E0911A039B
:102D1000F0911B031082E0911C03F0911D038FECD6
:102D2000808310922603E0912203F091230386E032
:102D30008083E0912003F091210380818061808372
:102D4000E0912003F0912103808188608083E091ED
:102D50002003F0912103808180688083E09120032B
:102D6000F091210380818F7D80838BEA93E09093A3
:102D70005708809356081092E9021092E8021092C8
:102D80000B0310920A030E94510D82E894E0909385
:102D9000A7028093A60283E894E09093A90280930F
:102DA000A802109253081092520889E180934D08AE
:102DB00060E88FE10E94700F64E670E080E090E0D0
:102DC0000E944F0467E080E20E949C0F64E670E07E
:102DD00080E090E00E944F0460E883E20E949C0F34
:102DE00064E670E080E090E00E944F0463E2CE0170
:102DF00001960E9441106981606383E20E949C0FEA
:102E000064E670E080E090E00E944F0480E095E08E
:102E100090934F0880934E0880E790E00E949011B5
:102E200064E670E080E090E00E944F0480E490E06F
:102E30000E94901160E086E00E94EE031092B202C0
:102E40001092B102E091BF07F091C00730E020E09E
:102E500040E06AE08BEB97E0099580914608882373
:102E600021F08BEB97E00E94241380E00E944F0337
:102E70008BEB97E00E94530C1091F6078091F507B9
:102E8000180FE091BB07F091BC078189181708F46F
:102E900020C18BEB97E00E94980580E00E944F03D1
:102EA000E091BF07F091C00730E020E040E06BE028
:102EB0008BEB97E00995809115089091160888563C
:102EC000904009F010C18BEB97E00E94241383ED32
:102ED00092E09093BE078093BD070E94050C8BEB98
:102EE00097E00E94530C8BEB97E00E94980560EDF1
:102EF00077E080E090E00E944F0485E0282E312C9E
:102F00000AE010E094E1A92EB12C2EE1822E912C42
:102F100068E2CE0101960E944110F98069E2CE017B
:102F200001960E9441106981762F6F2D072E000CAB
:102F3000880B990B0E94B51B6B017C0160914E08B8
:102F400070914F08072E000C880B990B0E94B51B3F
:102F50009B01AC01C701B6010E940B1B6B017C01F8
:102F60008091AC02811172C16091AA027091AB0292
:102F7000072E000C880B990B0E94B51B2B013C01FE
:102F800020E030E040E05FE30E94061B181654F09A
:102F900020E030E040E05FE3C701B6010E94651C1D
:102FA0001816A4F020E030E040E05FEBC301B2016E
:102FB0000E94651C87FD16C020E030E040E05FEB1A
:102FC000C701B6010E94061B87FF0CC08091B102A9
:102FD0009091B20201969093B2028093B10281E087
:102FE0008093AC02C701B6010E947D1B7093AB02B7
:102FF0006093AA0267EB71E08EE093E00E942213D7
:103000008091B1029091B2020E94EA1286E00E9481
:10301000970321E0892B09F020E08091B002281766
:1030200009F42CC191E09093AF022093B0028091FB
:10303000AF02882311F18091B0028823F1F08091D2
:10304000AD029091AE020196B1010E942F1A9093A9
:10305000AE028093AD026FEB71E08EE093E00E94D0
:1030600022138091AD029091AE020E94EA1264EFA9
:1030700071E080E090E00E944F048BEB97E00E94AB
:1030800024138091AD029091AE028230910509F433
:1030900043C10CF0F6C0019709F421C18BEB97E016
:1030A0000E94530C8BEB97E00E94980564E670E059
:1030B00080E090E00E944F0480E090E0892B09F4CA
:1030C00027CF0E94EE04882309F422CF0E9400003B
:1030D0001FCF80914608882321F08BEB97E00E9458
:1030E0002413812FC3CEE8E6F0E0F0931608E093B6
:1030F0001508E491E0932808E9E6F0E0E491E09314
:103100002908EAE6F0E0E491E0932A08EBE6F0E033
:10311000E491E0932B08ECE6F0E0E491E0932C08D6
:10312000EDE6F0E0E491E0932D08EEE6F0E0E491C6
:10313000E0932E08EFE6F0E0E491E0932F08E0E75B
:10314000F0E0E491E0933008E1E7F0E0E491E0930F
:103150003108E2E7F0E0E491E0933208E3E7F0E0E1
:10316000E491E0933308E4E7F0E0E491E09334087D
:10317000E5E7F0E0E491E0933508E6E7F0E0E4917C
:10318000E0933608E7E7F0E0E491E0933708E8E7FA
:10319000F0E0E491E093380861E188E690E00E9475
:1031A0002E0A90933A088093390863E188E690E00C
:1031B0000E942E0A90933C0880933B0865E188E6C4
:1031C00090E00E942E0A90933E0880933D088091E3
:1031D000150890911608892B09F475CE8091350851
:1031E00080934108409136084093420890914008EE
:1031F000992309F468CE913071F4909137088917BA
:1032000014F4909341088091380884170CF05BCE39
:103210008093420858CE3091320820913408082E0D
:10322000000C990B622F022E000C770B630F711D9F
:1032300037FD7A95861797071CF4320F30934108B3
:1032400024170CF040CE209342083DCE20E030E021
:1032500040E05FE3C701B6010E94061B18160CF49C
:10326000C1CE20E030E040E05FEBC701B6010E9434
:10327000651C87FDB7CE1092AC02B4CE1092AF029F
:10328000D6CE8330910509F499C0049709F006CF92
:1032900010924A081092490810934C0800934B086A
:1032A00064E072E087EB97E00E94221310924A08D4
:1032B00010924908B0924C08A0924B086CE072E062
:1032C00087EB97E00E94221310924A081092490857
:1032D00090924C0880924B0867E172E018C01092FF
:1032E0004A081092490810934C0800934B0861ED6E
:1032F00071E087EB97E00E94221310924A08109227
:103300004908B0924C08A0924B086CED71E087EB35
:1033100097E00E942213C2CE6091B1027091B20276
:10332000072E000C880B990B0E94B51B2AE037ED85
:1033300043E25DE30E946A1C2B013C0110924A08A3
:103340001092490810934C0800934B0867EB71E00A
:1033500087EB97E00E942213C090B102D090B20296
:103360000D2C000CEE08FF082AE0B701A601F7FEBD
:103370000DC06DE287EB97E00E94EA0F44275527C6
:10338000BA014C195D096E097F092AE087EB97E0C5
:103390000E94BC1110924A0810924908B0924C0841
:1033A000A0924B0864EE71E087EB97E00E94221335
:1033B00042E0C301B2010E94081270CE6091B102D6
:1033C0007091B202072E000C880B990B0E94B51B5E
:1033D0002CE537E743E35FE30E946A1C6B017C0145
:1033E00010924A081092490810934C0800934B0819
:1033F0006EEE71E087EB97E00E94221310924A086C
:1034000010924908B0924C08A0924B0867EF71E007
:1034100087EB97E00E94221320E030E04AE754E473
:10342000C701B6010E940B1B42E00E9408121092D5
:103430004A081092490890924C0880924B086CEF11
:1034400071E087EB97E00E94221320E030E249EC24
:1034500054E4C701B6010E940B1B42E0ACCF97FBBE
:10346000072E16F4009407D077FD09D00E94701A39
:1034700007FC05D03EF4909581959F4F0895709577
:1034800061957F4F0895A1E21A2EAA1BBB1BFD0177
:103490000DC0AA1FBB1FEE1FFF1FA217B307E40733
:1034A000F50720F0A21BB30BE40BF50B661F771F8B
:1034B000881F991F1A9469F760957095809590956B
:1034C0009B01AC01BD01CF0108950E948A1AA59FFE
:1034D000900DB49F900DA49F800D911D112408950F
:1034E000AA1BBB1B51E107C0AA1FBB1FA617B7072A
:1034F00010F0A61BB70B881F991F5A95A9F7809546
:103500009095BC01CD010895EE0FFF1F0590F49139
:10351000E02D0994A29FB001B39FC001A39F700D3D
:10352000811D1124911DB29F700D811D1124911DCB
:1035300008955058BB27AA270E94B11A0C942B1C3F
:103540000E941D1C38F00E94241C20F039F49F3F7B
:1035500019F426F40C941A1C0EF4E095E7FB0C9475
:10356000141CE92F0E943C1C58F3BA17620773071A
:103570008407950720F079F4A6F50C945E1C0EF4F0
:10358000E0950B2EBA2FA02D0B01B90190010C0173
:10359000CA01A0011124FF27591B99F0593F50F48B
:1035A000503E68F11A16F040A22F232F342F4427E3
:1035B000585FF3CF469537952795A795F0405395DB
:1035C000C9F77EF41F16BA0B620B730B840BBAF0AB
:1035D0009150A1F0FF0FBB1F661F771F881FC2F716
:1035E0000EC0BA0F621F731F841F48F4879577952A
:1035F0006795B795F7959E3F08F0B0CF9395880FE4
:1036000008F09927EE0F9795879508950E94F01B73
:1036100008F481E008950E941F1B0C942B1C0E944B
:10362000241C58F00E941D1C40F029F45F3F29F033
:103630000C94141C51110C945F1C0C941A1C0E94C5
:103640003C1C68F39923B1F3552391F3951B550B5B
:10365000BB27AA2762177307840738F09F5F5F4F65
:10366000220F331F441FAA1FA9F335D00E2E3AF0A4
:10367000E0E832D091505040E695001CCAF72BD0BC
:10368000FE2F29D0660F771F881FBB1F261737070D
:103690004807AB07B0E809F0BB0B802DBF01FF273F
:1036A00093585F4F3AF09E3F510578F00C94141CEC
:1036B0000C945F1C5F3FE4F3983ED4F386957795B6
:1036C0006795B795F7959F5FC9F7880F911D9695F8
:1036D000879597F90895E1E0660F771F881FBB1F54
:1036E000621773078407BA0720F0621B730B840B01
:1036F000BA0BEE1F88F7E09508950E94841B68942A
:10370000B1110C945F1C08950E94441C88F09F57CF
:1037100098F0B92F9927B751B0F0E1F0660F771FF5
:10372000881F991F1AF0BA95C9F714C0B13091F0EB
:103730000E945E1CB1E008950C945E1C672F782FE8
:103740008827B85F39F0B93FCCF3869577956795B0
:10375000B395D9F73EF490958095709561957F4F1C
:103760008F4F9F4F0895E89409C097FB3EF49095C2
:103770008095709561957F4F8F4F9F4F9923A9F04A
:10378000F92F96E9BB279395F695879577956795D9
:10379000B795F111F8CFFAF4BB0F11F460FF1BC01D
:1037A0006F5F7F4F8F4F9F4F16C0882311F096E9B0
:1037B00011C0772321F09EE8872F762F05C066235E
:1037C00071F096E8862F70E060E02AF09A95660F17
:1037D000771F881FDAF7880F9695879597F90895D0
:1037E000990F0008550FAA0BE0E8FEEF1616170612
:1037F000E807F907C0F012161306E407F50798F07A
:10380000621B730B840B950B39F40A2661F0232B92
:10381000242B252B21F408950A2609F4A140A6950E
:103820008FEF811D811D089597F99F6780E870E0F3
:1038300060E008959FEF80EC089500240A94161626
:10384000170618060906089500240A94121613068E
:10385000140605060895092E0394000C11F488231C
:1038600052F0BB0F40F4BF2B11F460FF04C06F5F38
:103870007F4F8F4F9F4F089557FD9058440F551F0E
:1038800059F05F3F71F04795880F97FB991F61F0E2
:103890009F3F79F087950895121613061406551F59
:1038A000F2CF4695F1DF08C0161617061806991FC5
:1038B000F1CF86957105610508940895E894BB27BA
:1038C00066277727CB0197F908950E94F01B08F42B
:1038D0008FEF08950E947D1C0C942B1C0E941D1CD0
:1038E00038F00E94241C20F0952311F00C94141C35
:1038F0000C941A1C11240C945F1C0E943C1C70F345
:10390000959FC1F3950F50E0551F629FF001729F84
:10391000BB27F00DB11D639FAA27F00DB11DAA1F93
:10392000649F6627B00DA11D661F829F2227B00DE0
:10393000A11D621F739FB00DA11D621F839FA00D6B
:10394000611D221F749F3327A00D611D231F849FBB
:10395000600D211D822F762F6A2F11249F57504012
:103960009AF0F1F088234AF0EE0FFF1FBB1F661F8D
:10397000771F881F91505040A9F79E3F510580F056
:103980000C94141C0C945F1C5F3FE4F3983ED4F33A
:10399000869577956795B795F795E7959F5FC1F7FA
:1039A000FE2B880F911D9695879597F908950E9493
:1039B000F01B880B990B0895DC0101C06D934150F9
:0A39C0005040E0F70895F894FFCF9F
:1039CA001815A015C019FF1815A115C819FF181543
:1039DA00AE19FF1815AF19FF1815AE15D5168015B3
:1039EA00A8163F15D316001540158D161415201666
:1039FA000015A115C815DA1612158116CF15D91694
:103A0A00F115DB1640152E15A415A619FF00011491
:103A1A000A6464323200127A000004289610080000
:103A2A0000800040000000000024058404B10471F5
:103A3A0005E204C004D40400000000E70DBA0D3EFC
:103A4A0010900DB30DA00D910D00000000EA0FC2F9
:103A5A000F3E103D10870712087707496E6974698F
:103A6A00616C697A696E67006E616E00696E6600E4
:103A7A006F7666000D0A0053746570733A20004D24
:103A8A006F6465206368616E67656420746F3A20AD
:103A9A000057656C636F6D6520546F0048657861E7
:103AAA006269740043616C6F7269653A2000446907
:103ABA007374616E6365004B6D3A20004D696C65E5
:103ACA00733A20004D616465204279004B70616E43
:0C3ADA006573617238380076312E3000C0
:00000001FF
