:100000000C9472000C949A000C949A000C949A0030
:100010000C949A000C949A000C949A000C949A00F8
:100020000C949A000C949A000C949A000C949A00E8
:100030000C949A000C949A000C949A000C949A00D8
:100040000C94600A0C949A000C94D00A0C94AA0A9E
:100050000C949A000C949A000C949A000C949A00B8
:100060000C94020B0C949A0000000000240027005E
:100070002A001F1C1F1E1F1E1F1F1E1F1E31393A64
:1000800035363A3532005365702031372032303200
:1000900034000000000023002600290000000000BA
:1000A000250028002B0004040404040404040202B4
:1000B00002020202030303030303010204081020E7
:1000C00040800102040810200102040810200000F2
:1000D0000008000201000003040700000000000007
:1000E00000002E0C11241FBECFEFD8E0DEBFCDBF25
:1000F00023E0A2EEB1E001C01D92A936B207E1F7FC
:1001000011E0A0E0B1E0E0EAFBE202C005900D9250
:10011000A23EB107D9F710E0C2E7D0E004C02197B2
:10012000FE010E94B712C137D107C9F70E946C0CBB
:100130000C94CE150C94000008950895833081F03E
:1001400028F4813099F08230A9F008958730A9F021
:100150008830C9F08430B1F4809180008F7D03C075
:10016000809180008F7780938000089584B58F7789
:1001700084BD089584B58F7DFBCF8091B0008F77CB
:100180008093B00008958091B0008F7DF9CF1F93C8
:10019000CF93DF93282F30E0F901E253FF4F849192
:1001A000F901E654FF4FD491F901EA55FF4FC4918C
:1001B000CC23A9F0162F81110E949E00EC2FF0E0B5
:1001C000EE0FFF1FE456FF4FA591B4918FB7F8943F
:1001D000EC91111108C0D095DE23DC938FBFDF9125
:1001E000CF911F910895DE2BF8CF3FB7F8948091FF
:1001F000350290913602A0913702B091380226B5AF
:10020000A89B05C02F3F19F00196A11DB11D3FBF4E
:10021000BA2FA92F982F8827BC01CD01620F711D1D
:10022000811D911D42E0660F771F881F991F4A9517
:10023000D1F708958F929F92AF92BF92CF92DF92A3
:10024000EF92FF920E94F5004B015C0184E6C82EFC
:10025000D12CE12CF12C0E94F500681979098A094A
:100260009B09683E734081059105A8F321E0C21AFD
:10027000D108E108F10888EE880E83E0981EA11CE1
:10028000B11CC114D104E104F10429F7FF90EF90EF
:10029000DF90CF90BF90AF909F908F900895AF92D6
:1002A000BF92CF92DF92EF92FF920F931F93CF9363
:1002B000DF936C017B018B01040F151FEB015E01C5
:1002C000AE18BF08C017D10759F06991D601ED915A
:1002D000FC910190F081E02DC6010995892B79F7F9
:1002E000C501DF91CF911F910F91FF90EF90DF90AB
:1002F000CF90BF90AF900895FC01538D448D252F72
:1003000030E0842F90E0821B930B541710F0CF96AF
:10031000089501970895FC01918D828D981761F0E1
:10032000A28DAE0FBF2FB11D5D968C91928D9F5FF8
:100330009F73928F90E008958FEF9FEF0895FC01D7
:10034000918D828D981731F0828DE80FF11D858D8A
:1003500090E008958FEF9FEF0895FC01918D228D1D
:10036000892F90E0805C9F4F821B91098F739927A2
:10037000089581EB92E00E94AD0121E0892B09F400
:1003800020E0822F089580E090E0892B29F00E94E0
:10039000B90181110C9400000895FC01A48DA80FEF
:1003A000B92FB11DA35ABF4F2C91848D90E00196B7
:1003B0008F739927848FA689B7892C93A089B189D7
:1003C0008C91837080648C93938D848D981306C078
:1003D0000288F389E02D80818F7D80830895EF92DC
:1003E000FF920F931F93CF93DF93EC0181E0888FEF
:1003F0009B8D8C8D98131AC0E889F989808185FFBF
:1004000015C09FB7F894EE89FF896083E889F98960
:1004100080818370806480839FBF81E090E0DF9162
:10042000CF911F910F91FF90EF900895F62E0B8DB5
:1004300010E00F5F1F4F0F731127E02E8C8D8E1170
:100440000CC00FB607FCFACFE889F989808185FFD7
:10045000F5CFCE010E94CD01F1CFEB8DEC0FFD2F3A
:10046000F11DE35AFF4FF0829FB7F8940B8FEA8992
:10047000FB8980818062CFCFCF93DF93EC01888DA1
:100480008823B9F0AA89BB89E889F9898C9185FD0F
:1004900003C0808186FD0DC00FB607FCF7CF8C919D
:1004A00085FFF2CF808185FFEDCFCE010E94CD0187
:1004B000E9CFDF91CF9108958FB7F894809126020C
:1004C0008FBF08958EBD00000DB407FEFDCF8EB521
:1004D00008958CBD9DBD089520910302260F3327FA
:1004E000331F21323105ECF420918702FC0190E0AA
:1004F00080E0243069F082E00895A0910302219108
:10050000AC014D515E4FA40FB52FB11D2C93019638
:10051000861798F380910302680F6093030280E0CE
:10052000089581E008951092870281E08093860209
:100530001092610261E082E10E94C70061E083E104
:100540000E94C700E9EBF0E080818E7F808380818C
:100550008D7F808388E48093B80085E48093BC001D
:1005600008951092400210923F0210928E02109253
:10057000B0020E9493028CE990E090933C02809339
:100580003B028DE990E090933A02809339020895FE
:10059000CF93DF9391E09093E2018823B9F0C0916B
:1005A000B800D091BA008091BC008A7B8093BC00D7
:1005B00060E082E10E94C70060E083E10E94C70022
:1005C0000E949302D093BA00C093B800DF91CF91FC
:1005D00008958F929F92AF92BF92CF92DF92EF9247
:1005E000FF920F931F93CF93DF93D091B002D1323C
:1005F00008F0D7C0182FC091AF020E94F5006B0120
:100600007C018091870281116BC082E08093870218
:10061000109386028FEF8093850210928402D0930C
:100620008302AFE8B2E0E3E6F2E080E0D81391C0E5
:100630001092620280916202CC0FC82BC0936202BA
:1006400080916102813009F088C0109261020E949D
:10065000F5006B017C01809162028093BB00809168
:10066000890290918A02A0918B02B0918C02892B11
:100670008A2B8B2BA1F00E94F5000091890210912A
:100680008A0220918B0230918C026C197D098E09AF
:100690009F09061717072807390708F442C08091F9
:1006A000BC0083FDD8CF85EC8093BC000E94F50090
:1006B0006B017C0180918702823009F450C08091E7
:1006C00085028F3F09F46FC080918502803209F462
:1006D0006CC080918502803309F469C084E026C033
:1006E0008091890290918A02A0918B02B0918C0234
:1006F000892B8A2B8B2B09F484CF0E94F5008090E4
:10070000890290908A02A0908B02B0908C026C19A2
:100710007D098E099F0986169706A806B90608F076
:1007200070CF809188020E94C80285E010928E02EC
:100730001092B00210928D02DF91CF911F910F9114
:10074000FF90EF90DF90CF90BF90AF909F908F90F1
:1007500008959D9191938F5F69CF85EEA5CF80918C
:10076000890290918A02A0918B02B0918C02892B10
:100770008A2B8B2B09F49ECF0E94F50000918902F1
:1007800010918A0220918B0230918C026C197D09A4
:100790008E099F09061717072807390708F08ACF1F
:1007A000C0CF81E0C3CF80E0C1CF82E0BFCF83E084
:1007B000BDCF1F93CF93DF93162FCAE5D3E0A98552
:1007C000BA85988121E020938D029093AF02109218
:1007D0008E021092B002ED91FC9111970190F08180
:1007E000E02D682FCD01099589859A85DC01ED9171
:1007F000FC910190F081E02D612F099581E0DF915E
:10080000CF911F910C94E902CF93DF9320915F0366
:1008100030916003232BD1F0D62FC82F8091610334
:10082000909162030E94690260E080915E030E94E1
:10083000C7008C2F0E9462028D2F0E94620261E02D
:1008400080915E03DF91CF910C94C700DF91CF912F
:100850000C94D903CF93DF93EC018B818823A1F013
:10086000888191E090938D028093AF0210928E0266
:100870001092B00281E00E94E90291E0811190E0C3
:10088000892FDF91CF9108950E94B10281E08B837F
:10089000CE010E942A04982F8111E2CFF1CF8F92CE
:1008A0009F92AF92BF92CF92DF92EF92FF920F93FF
:1008B0001F93CF93DF93D82FC62F142F613208F0E8
:1008C0009CC00E94F5006B017C0180918702811120
:1008D0006FC081E080938702109386029FEF909310
:1008E0008502109284029C0F90938302809362028F
:1008F00080916202DD0FD82BD09362028091610259
:10090000813009F07CC0109261020E94F5006B01F9
:100910007C01809162028093BB008091890290915A
:100920008A02A0918B02B0918C02892B8A2B8B2B8F
:10093000A1F00E94F5000091890210918A02209195
:100940008B0230918C026C197D098E099F09061764
:1009500017072807390708F44CC08091BC0083FDB5
:10096000D8CF85EC8093BC000E94F5006B017C0120
:1009700080918702813009F444C0809184028C17F1
:1009800010F4C0918402E3E6F2E0A1E4B2E080E07A
:100990008C1359C08C2FDF91CF911F910F91FF9035
:1009A000EF90DF90CF90BF90AF909F908F90089581
:1009B0008091890290918A02A0918B02B0918C0261
:1009C000892B8A2B8B2B09F480CF0E94F500809015
:1009D000890290908A02A0908B02B0908C026C19D0
:1009E0007D098E099F0986169706A806B90608F0A4
:1009F0006CCF809188020E94C802C0E0CBCF85EE08
:100A0000B1CF8091890290918A02A0918B02B0911E
:100A10008C02892B8A2B8B2B09F4AACF0E94F5001C
:100A20000091890210918A0220918B0230918C02F0
:100A30006C197D098E099F090617170728073907C2
:100A400008F096CFD6CF91919D938F5FA1CF089557
:100A5000E091400280913F02E81730F4F0E0EF5B54
:100A6000FD4F808190E008958FEF9FEF0895909162
:100A7000400280913F022FEF3FEF981748F4E92F93
:100A8000F0E0EF5BFD4F208130E09F5F90934002EC
:100A9000C901089580913F0290914002891B990BF2
:100AA0000895CF92DF92EF92FF920F931F93CF930F
:100AB000DF937C01CB018A0120918D02222389F0F2
:100AC000EB016B01C40ED51ECC15DD0569F06991F3
:100AD000D701ED91FC910190F081E02DC7010995BE
:100AE000F3CF642F0E946C02C801DF91CF911F9158
:100AF0000F91FF90EF90DF90CF900895CF93DF9309
:100B00001F92CDB7DEB7698320918D022223F9F0C1
:100B10002091B002203258F021E030E0FC01338314
:100B2000228390E080E00F90DF91CF910895809133
:100B30008E02E82FF0E0E157FD4F998190838F5F9F
:100B400080938E028093B00281E090E0ECCF61E070
:100B5000CE0101960E946C02F7CF90E080E00895EC
:100B6000FC0101900020E9F73197AF01481B590BB8
:100B7000BC0181EB92E00C944F018F929F92AF9257
:100B8000BF920F931F93CF93DF93CDB7DEB7A1979B
:100B90000FB6F894DEBF0FBECDBF19A2423008F4E5
:100BA0004AE08E010F5D1F4F842E912CB12CA12C99
:100BB000A50194010E949512E62FB901CA01EA30FD
:100BC000F4F4E05DD801EE938D01232B242B252B2B
:100BD00079F790E080E0109719F0CD010E94B00500
:100BE000A1960FB6F894DEBF0FBECDBFDF91CF91B7
:100BF0001F910F91BF90AF909F908F900895E95CE7
:100C0000E1CFCF93DF930E94B005EC018CE291E03D
:100C10000E94B0058C0F9D1FDF91CF910895CF9357
:100C2000DF93FC01448155816081718181EB92E009
:100C30000E944F01EC018CE291E00E94B0058C0F04
:100C40009D1FDF91CF9108951F93CF93DF93DC0118
:100C50001496ED91FC91E417F50710F490E01FC095
:100C6000122FEA01FC0181819281208131E03093D1
:100C70008D022093AF0210928E021092B002DC011E
:100C8000ED91FC910280F381E02D0995C817D907F9
:100C900029F7812F0E94E90291E08111DFCF892F8E
:100CA000DF91CF911F9108956F927F928F929F92C3
:100CB000AF92BF92CF92DF92EF92FF920F931F936A
:100CC000CF93DF936C013B017A0110E000E0D60185
:100CD00014968D919C91E701C01BD10B8C179D0739
:100CE00008F4EC0141E0C7018C1B9D0B08171907A4
:100CF00008F440E06C2FC13208F060E2F601808118
:100D00000E944F041092400280933F028C171D06F0
:100D100079F54301800E911E5401C5018819990986
:100D20008C179D0778F4D60111968D919C91DC016A
:100D3000ED91FC910284F385E02D0995F5018193F5
:100D40005F01EBCF0C0F1D1F0E151F0508F4BFCF61
:100D500081E0DF91CF911F910F91FF90EF90DF9095
:100D6000CF90BF90AF909F908F907F906F9008959D
:100D700080E0EFCFCF93DF9300D0CDB7DEB78FE029
:100D80008A8321E041E050E0BE016E5F7F4F809199
:100D90003D0290913E020E94240641E050E0BE01D7
:100DA0006F5F7F4F80913D0290913E020E945406FA
:100DB00089810F900F90DF91CF910895EF92FF926C
:100DC0000F931F93CF93DF9300D000D000D01F92DA
:100DD000CDB7DEB78C011982E0903D02F0903E0263
:100DE00020E041E050E0BE016F5F7F4FC7010E94ED
:100DF0002406882341F047E050E0BE016F5F7F4F3B
:100E0000C7010E945406E981EF77FA81FB805D817A
:100E10004E814F778F81282F30E094E035952795CC
:100E20009A95E1F7922F990F990F291B220F280FFE
:100E3000D8012C93842F90E024E0959587952A95EE
:100E4000E1F7982F990F990F891B880F840F11963E
:100E50008C931197652F70E034E0759567953A95FE
:100E6000E1F7862F880F880F681B660F650F1296B3
:100E70006C9312974F2D50E064E0559547956A9515
:100E8000E1F7842F880F880F481B440F4F0D1396EE
:100E90004C9313972F2F30E074E0359527957A9572
:100EA000E1F7822F880F880F281B220F2F0F14962F
:100EB0002C9314978E2F90E0F4E095958795FA95F2
:100EC000E1F7982F990F990F891B880F8E0F1596B0
:100ED0008C93C80127960FB6F894DEBF0FBECDBF26
:100EE000DF91CF911F910F91FF90EF9008950F9395
:100EF0001F93CF938C01C62F80915F039091600365
:100F0000892BE1F080916103909162030E94690254
:100F100060E080915E030E94C7008C2F806C0E946D
:100F2000620280E00E946202D8018C9361E08091AD
:100F30005E03CF911F910F910C94C70080916303C2
:100F40009091640320915A0331E030938D022093F5
:100F5000AF0210928E021092B0026068DC01ED9137
:100F6000FC910190F081E02D099581E00E94E90259
:100F700041E061E080915A030E944F0410924002C8
:100F800080933F028091630390916403DC01ED91B3
:100F9000FC910084F185E02D0995892BD9F0809191
:100FA000630390916403DC01ED91FC910284F3856D
:100FB000E02D0995F801808380916303909164038B
:100FC000DC01ED91FC910084F185E02DCF911F9122
:100FD0000F910994CF911F910F9108951F93CF9373
:100FE000DF931F92CDB7DEB7182F60E2CE010196D6
:100FF0000E94770769816F70612B80E20E94040470
:101000000E941A010F90DF91CF911F9108954F9286
:101010005F926F927F928F929F92AF92BF92CF9288
:10102000DF92EF92FF926B017C01AC019B010E9469
:10103000D7138823C1F08FE291E00E94B0057C01B4
:101040008CE291E00E94B0058E0D9F1DFF90EF9005
:10105000DF90CF90BF90AF909F908F907F906F90D8
:101060005F904F90089546015701E894B7F82FEF2D
:101070003FEF4FE75FE7C501B4010E94D71381112D
:101080000DC02FEF3FEF4FE75FE7C501B4010E94AE
:10109000061118161CF483E391E0CFCF2FEF3FEF3A
:1010A0004FE75FE4C701B6010E94D21318161CF483
:1010B00087E391E0C2CF2FEF3FEF4FE75FECC7012F
:1010C000B6010E94061187FDF3CF20E030E0A901B0
:1010D000C701B6010E940611B12CA12C87FF0AC0DE
:1010E0006DE281EB92E00E94EF015C01F7FAF0946F
:1010F000F7F8F0942AE037ED43EA5BE3C701B60165
:101100000E94BE122B013C010E94A3136B017C01C3
:101110000E940B119B01AC01C301B2010E94BD12E0
:101120002B013C014AE0C701B6010E94BD057C01CC
:10113000EA0CFB1C6EE281EB92E00E94EF01E80EEC
:10114000F91E20E030E040E251E4C301B2010E9408
:101150006C112B013C010E94A3134B01B12CA12C5B
:101160004AE0C501B4010E94BD05E80EF91EC501A3
:10117000B4010E940B119B01AC01C301B2010E949A
:10118000BD1220E030E040E251E40E946C110E9468
:10119000A31390E080E04AE00E94BD05E80EF91E2E
:1011A0004FCFCF93DF93EC0188819981009711F0A5
:1011B0000E947814198218821D821C821B821A8256
:1011C000DF91CF910895FC0180819181009711F00A
:1011D0000C94781408950F931F93CF93DF93EC0131
:1011E00088819981009759F02A813B81261737071A
:1011F00030F081E0DF91CF911F910F9108958B0125
:101200006F5F7F4F0E940115009759F09983888383
:101210001B830A832C813D81232B59F7FC0110820B
:10122000E8CF80E0E7CFEF92FF920F931F93CF9329
:10123000DF936115710541F480E0DF91CF911F913B
:101240000F91FF90EF90089541155105B1F07B018A
:10125000EC010C811D81040F151FB8010E94EB08E1
:10126000882351F3288139818C819D81B701820FB8
:10127000931F0E94C7151D830C8381E0DECFCF939F
:10128000DF93EC01FB0101900020E9F73197AF01FA
:10129000461B570B0E941309811103C0CE010E9407
:1012A000D108CE01DF91CF910895CF93DF93EC0168
:1012B000FB0144815581608171810E941309811174
:1012C00003C0CE010E94D108CE01DF91CF910895D5
:1012D000EF92FF920F931F93CF93DF93EC017B016B
:1012E0008A01BA010E94EB0881110BC0CE010E9455
:1012F000D108CE01DF91CF911F910F91FF90EF9018
:1013000008951D830C83B701888199810E94C715B8
:10131000F0CFEF92FF920F931F93CF93DF93CDB750
:10132000DEB762970FB6F894DEBF0FBECDBF8C015B
:10133000CB01F8011182108213821282158214826D
:101340004AE09E012F5F3F4F7901B9010E94D11001
:10135000F70101900020E9F73197AF014E195F09BD
:10136000B701C8010E94680962960FB6F894DEBF03
:101370000FBECDBFDF91CF911F910F91FF90EF90E6
:101380000895FB01DC0111961C921E9213961C928B
:101390001E92129715961C921E9214978617970705
:1013A00049F0608171816115710521F04481558199
:1013B0000C9468090895FC01118210821382128234
:1013C00015821482FB0101900020E9F73197AF01EB
:1013D000461B570B0C9468090F931F93CF93DF9311
:1013E000CDB7DEB72C970FB6F894DEBF0FBECDBFDA
:1013F0008C016A3071054CF5CE0107960E9489096F
:101400006FED71E0CE0101960E94DB09BE01695FBC
:101410007F4FCE0101960E945509BC01C8010E9470
:10142000C109CE0101960E94E308CE0107960E94F1
:10143000E308C8012C960FB6F894DEBF0FBECDBFEF
:10144000DF91CF911F910F9108950E948909F1CFEB
:1014500085ED8093BC008091890290918A02A091D1
:101460008B02B0918C020796A11DB11D23E0B695A9
:10147000A795979587952A95D1F72091BC0024FDD3
:1014800003C01092870208954091890250918A0208
:1014900060918B0270918C02452B462B472B69F390
:1014A0000097A105B10541F02AE22A95F1F700C0A5
:1014B0000197A109B109E1CF809188020C94C8027B
:1014C0001F920F920FB60F9211242F933F938F9379
:1014D0009F93AF93BF938091310290913202A0917C
:1014E0003302B09134023091300223E0230F2D37C4
:1014F00058F50196A11DB11D209330028093310251
:1015000090933202A0933302B0933402809135025B
:1015100090913602A0913702B09138020196A11D38
:10152000B11D8093350290933602A0933702B09399
:101530003802BF91AF919F918F913F912F910F9062
:101540000FBE0F901F90189526E8230F0296A11D3D
:10155000B11DD2CF1F920F920FB60F9211242F936D
:101560003F934F935F936F937F938F939F93AF932B
:10157000BF93EF93FF9381EB92E00E94CD01FF9127
:10158000EF91BF91AF919F918F917F916F915F91FB
:101590004F913F912F910F900FBE0F901F90189574
:1015A0001F920F920FB60F9211242F938F939F9338
:1015B000EF93FF93E091C102F091C2028081E0912C
:1015C000C702F091C80282FD1BC090818091CA02BF
:1015D0008F5F8F732091CB02821741F0E091CA0296
:1015E000F0E0EF54FD4F958F8093CA02FF91EF9189
:1015F0009F918F912F910F900FBE0F901F90189574
:101600008081F4CF1F920F920FB60F9211242F9367
:101610003F934F935F936F937F938F939F93AF937A
:10162000BF93EF93FF938091B900887F803609F4D0
:101630004AC0F0F5883209F4A7C018F5803109F4E2
:101640009BC0B8F4882309F4F9C0883009F494C029
:10165000FF91EF91BF91AF919F918F917F916F918A
:101660005F914F913F912F910F900FBE0F901F9060
:101670001895883109F488C0803251F7809385022B
:1016800014C0803409F49DC040F48033B9F388332A
:10169000F9F68093850285ECB0C0803509F485C0E9
:1016A000883509F496C0883499F60E94280AD0CF6C
:1016B000883909F48CC038F5883729F050F4883619
:1016C00011F0803729F683E080938702109225027B
:1016D00057C0883809F47BC0803919F0803809F088
:1016E000B7CF80912502803208F071C0E0912502C9
:1016F00081E08E0F809325028091BB00F0E0EB5FCC
:10170000FD4F80833DC0803B39F0E0F4803A09F41E
:1017100079C0883A09F09CCF84E0809387021092C8
:10172000040210920302E0913B02F0913C02099501
:101730008091030281110FC081E080930302109217
:10174000E30109C0803C09F4A6CF883C09F4A3CF8B
:10175000883B09F07DCFE091040281E08E0F8093F9
:101760000402F0E0ED51FE4F80818093BB00909128
:1017700004028091030229C0809162028093BB0021
:1017800085EC8093BC0064CF9091840280918302A9
:10179000981758F5E091840281E08E0F80938402BF
:1017A000F0E0ED59FD4F8081E9CFE091840281E0C6
:1017B0008E0F809384028091BB00F0E0ED59FD4FC5
:1017C000808390918402809183029817C8F285E803
:1017D000D8CFE091840281E08E0F809384028091C3
:1017E000BB00F0E0ED59FD4F8083809186028111AE
:1017F0005CCF81E08093610284EA8093BC00109208
:10180000870226CF85EC8093BC00109287028091DE
:101810002502803230F4E0912502F0E0EB5FFD4FCD
:1018200010826091250270E0E0913902F0913A0255
:1018300085E092E00995109225020ACF1092850268
:1018400034CFFC01908190539A3008F090E0818170
:1018500080532AE0929F800D11240895E1EBF2E07D
:101860001382128288EE93E0A0E0B0E08483958337
:10187000A683B7832CE031E03183208325EC30E070
:101880003587248724EC30E03787268720EC30E04A
:10189000318B208B21EC30E0338B228B22EC30E03B
:1018A000358B248B26EC30E0378B268B118E128EF5
:1018B000138E148EEEE4F3E01382128284839583F8
:1018C000A683B7838EE191E091838083EAE5F3E01C
:1018D00080E5878310860895CF93DF93CDB7DEB779
:1018E000AF970FB6F894DEBF0FBECDBF789484B526
:1018F000826084BD84B5816084BD85B5826085BD0C
:1019000085B5816085BD80916E00816080936E0099
:10191000109281008091810082608093810080918B
:10192000810081608093810080918000816080933C
:1019300080008091B10084608093B1008091B000FC
:1019400081608093B00080917A00846080937A00F7
:1019500080917A00826080937A0080917A00816021
:1019600080937A0080917A00806880937A00109248
:10197000C100E091C102F091C20282E08083E09157
:10198000BD02F091BE021082E091BF02F091C00250
:101990008FEC80831092C902E091C502F091C602DB
:1019A00086E08083E091C302F091C402808180616F
:1019B0008083E091C302F091C402808188608083BB
:1019C000E091C302F091C402808180688083E0913D
:1019D000C302F091C40280818F7D80838EE493E006
:1019E00090936403809363030E94B102109260039A
:1019F00010925F0389E180935A0360E88FE10E94AF
:101A0000D9030E941A0167E080E20E9404040E9448
:101A10001A0160E883E20E9404040E941A0163E252
:101A20008E010F5F1F4FC8010E94770769816063B5
:101A300083E20E9404040E941A0180E095E09093E2
:101A40005C0380935B0380E790E00E94EE070E94B6
:101A50001A0180E490E00E94EE07E0ECF0E02491AF
:101A60006CEA262E60E0362EF10184918823C9F0BD
:101A700090E0880F991FFC01E859FF4FA591B491A0
:101A8000FC01E456FF4F459154913FB7F8949C9167
:101A9000822F809598239C93FA01908189238083DB
:101AA0003FBF10922B0210922A0280913D0290912A
:101AB0003E02009711F00E94781486E090E00E94A8
:101AC000DC136C0188E6F60180838EE493E0928358
:101AD0008183138280E290E095838483D0923E02DA
:101AE000C0923D020E94B10281E0F6018383C601EB
:101AF0000E942A04811105C08BE391E00E94010637
:101B0000FFCF0E94BA0690E0880F892F881F990B9B
:101B1000892B09F400C18DE491E00E9401064BE09D
:101B200050E066E870E0C8010E94C810CE010A9635
:101B30000E94210CE82EE981E154E33130F50E2EAC
:101B4000000CFF0BEA55F24F0C94B7120C0EC50DAA
:101B5000C50D270EC50D2A0EC50DC50DC50DB90D38
:101B6000C50DC50D150E240E210EC50DC50DC50DD7
:101B70001E0E8A81FF24F394813639F08B8136E082
:101B8000F32E8E3611F027E0F22ECE0105960E943C
:101B9000210CD82E48E050E06DE770E0C8010E94AB
:101BA000C810C8010E94210CC82ECE0104960E94C4
:101BB000210CB82ECE0107960E94210C382F1A82D4
:101BC00019822AE0622F0E946112982F880F890FD4
:101BD000880F830F8A838B2D0E946112982F880FA4
:101BE000890F880F8B0D8B838C2D0E946112982F8B
:101BF000880F890F880F8C0D8C836E2D70E08D2DD2
:101C000090E0E2E7F0E021E02F1538F53491830F02
:101C1000911D2F5F3196F8CF8B8194E0F92E82379A
:101C200009F4B3CF88E0F82EB0CF8B81B3E0FB2E60
:101C3000823709F4AACFA5E0FA2EA7CFF9E0FF2E4C
:101C4000A4CFEAE0FE2EA1CF7BE0F72E9ECF6CE082
:101C5000F62E9BCF52E0F52E98CFF2E0FF1520F440
:101C60002E2D237009F401969B012D5F3F4F369571
:101C7000279536952795EDE6F1E06E9FA0016F9FC1
:101C8000500D7E9F500D11244B5F5F4F240F351F69
:101C9000820F931F67E070E00E946D12811101C0F6
:101CA00087E08D832AE08D2D622F0E946112982F8C
:101CB000990F890F880FD80EDE828F2D0E94611236
:101CC000982F990F890F880FF80EFF828E2D0E9492
:101CD0006112982F990F890F880FE80EE88621E08E
:101CE00048E050E0B80180913D0290913E020E9490
:101CF00024060E94BA069FE09A8B8F778B8B21E097
:101D000042E050E0BE016E5E7F4F80913D029091B7
:101D10003E020E94240696E0892E912C20E0A22EFD
:101D200020E0B22E68E2C8010E947707F98069E2DC
:101D3000C8010E9477076981762F6F2D072E000C4E
:101D4000880B990B0E940D116B017C0160915B0364
:101D500070915C03072E000C880B990B0E940D11EB
:101D60009B01AC01C701B6010E942A136B017C01E3
:101D7000809129028111B8C06091270270912802D8
:101D8000072E000C880B990B0E940D112B013C01B2
:101D900020E030E040E05FE30E940611181654F0A6
:101DA00020E030E040E05FE3C701B6010E94D213BB
:101DB0001816A4F020E030E040E05FEBC301B20170
:101DC0000E94D21387FD16C020E030E040E05FEBB8
:101DD000C701B6010E94061187FF0CC080912A023C
:101DE00090912B02019690932B0280932A0221E07E
:101DF00020932902C701B6010E949C137093280208
:101E000060932702E4EDF0E08491E0ECF0E0F490E0
:101E1000F101E490EE2009F47FC081110E949E0040
:101E2000EE2DF0E0EE0FFF1FEE56FF4FA591B4919F
:101E30008C91F82231E020E009F430E0832F922FDA
:101E4000F1E08F27817090912F02891709F467C004
:101E500021E020932E0280932F0280912E0288236E
:101E600091F080912F02882371F080912C02909143
:101E70002D020196B4010E94811290932D0280934D
:101E80002C020E941A0180912C0290912D02209127
:101E900000013091010182179307C1F09093010175
:101EA000809300018CE291E00E94B00580912C02A9
:101EB00090912D028330910509F4FAC09CF5813090
:101EC000910509F440C0029709F442C00E941A012A
:101ED000A114B10409F426CF0E94B901882309F4A2
:101EE0001ACF0E94000017CF20E030E040E05FE30F
:101EF000C701B6010E94061118160CF47BCF20E032
:101F000030E040E05FEBC701B6010E94D21387FDCD
:101F100071CF109229026ECF90E080E091CF1092A5
:101F20002E029BCF8430910509F401C1059771F60B
:101F300089EC91E00E94010681ED91E00E9401068A
:101F40008CED91E002C08BE791E00E940106BECFCC
:101F5000CE014E960E94DE066AA170E0C8010E9482
:101F6000EC0969A170E0CE0148960E94EC09BE011F
:101F7000685E7F4FCE0142960E94C1096EE871E013
:101F8000CE0142960E943F09B8010E945509BC014A
:101F9000CE0184960E94C109CE0142960E94E308B8
:101FA000CE0148960E94E308C8010E94E30860E958
:101FB00071E0C8010E94DB09BE016C5D7F4FC80162
:101FC0000E9455090E940F06C8010E94E308CE0135
:101FD00084960E94E308CE0184960E94DE066EA1DC
:101FE00070E0CE0142960E94EC096DA170E0CE0136
:101FF00048960E94EC098CA190E01F8E1E8E19A2BB
:1020000018A21BA21AA24AE0B8018053984F0E945E
:10201000DC10F80101900020E9F73197AF01401B77
:10202000510BB801CE014E960E946809BE01625E56
:102030007F4FC8010E94C10967E971E0C8010E9491
:102040003F09BE01685E7F4F0E94550967E971E054
:102050000E943F09BE016E5E7F4F0E945509BC0180
:10206000CE018A960E94C109C8010E94E308CE01F0
:102070004E960E94E308CE0148960E94E308CE01E6
:1020800042960E94E30869E971E0C8010E94DB09F9
:10209000BE01665D7F4FC8010E9455090E940F0670
:1020A000C8010E94E308CE018A960E94E3080ECF81
:1020B00060912A0270912B02072E000C880B990B5D
:1020C0000E940D112AE037ED43E25DE30E946C119E
:1020D0002B013C0180EA91E00E94B005C0902A02E9
:1020E000D0902B020D2C000CEE08FF084AE0C7012F
:1020F000B601F7FE0DC06DE281EB92E00E94EF01A8
:1021000066277727CB016C197D098E099F094AE064
:102110000E94BD058CE291E00E94B00588EA91E042
:102120000E94B005C301B2010E940708CFCE6091A2
:102130002A0270912B02072E000C880B990B0E942B
:102140000D112CE537E743E35FE30E946C116B014F
:102150007C0183EB91E00E9401068CEB91E00E94F0
:10216000B00520E030E04AE754E4C701B6010E9420
:102170002A130E94070881EC91E00E94B00520E03C
:1021800030E249EC54E4C701B6010E942A13CCCFD7
:10219000FB01DC0102C005900D9241505040D8F780
:1021A0000895BB274A3031F4992322F4BDE290957B
:1021B00081959F4F0C94DD10BB27FB015527AA2763
:1021C000880F991FAA1FA41710F0A41B83955051C4
:1021D000B9F7A05DAA3308F0A95DA193009779F73C
:1021E000B111B1931192CB010C94F610DC01FC01FA
:1021F000672F71917723E1F7329704C07C916D933B
:1022000070836291AE17BF07C8F308950E9448110A
:1022100008F481E00895E89409C097FB3EF4909596
:102220008095709561957F4F8F4F9F4F9923A9F0AF
:10223000F92F96E9BB279395F6958795779567953E
:10224000B795F111F8CFFAF4BB0F11F460FF1BC082
:102250006F5F7F4F8F4F9F4F16C0882311F096E915
:1022600011C0772321F09EE8872F762F05C06623C3
:1022700071F096E8862F70E060E02AF09A95660F7C
:10228000771F881FDAF7880F9695879597F9089535
:10229000990F0008550FAA0BE0E8FEEF1616170677
:1022A000E807F907C0F012161306E407F50798F0DF
:1022B000621B730B840B950B39F40A2661F0232BF8
:1022C000242B252B21F408950A2609F4A140A69574
:1022D0008FEF811D811D08950E947F110C94F011D4
:1022E0000E94E21138F00E94E91120F0952311F0CC
:1022F0000C94D9110C94DF1111240C9424120E9417
:10230000011270F3959FC1F3950F50E0551F629F26
:10231000F001729FBB27F00DB11D639FAA27F00D3E
:10232000B11DAA1F649F6627B00DA11D661F829F65
:102330002227B00DA11D621F739FB00DA11D621F4A
:10234000839FA00D611D221F749F3327A00D611D67
:10235000231F849F600D211D822F762F6A2F112449
:102360009F5750409AF0F1F088234AF0EE0FFF1F7C
:10237000BB1F661F771F881F91505040A9F79E3FD3
:10238000510580F00C94D9110C9424125F3FE4F3B2
:10239000983ED4F3869577956795B795F795E79529
:1023A0009F5FC1F7FE2B880F911D9695879597F932
:1023B000089597F99F6780E870E060E008959FEFC7
:1023C00080EC089500240A941616170618060906CC
:1023D000089500240A94121613061406050608959B
:1023E000092E0394000C11F4882352F0BB0F40F423
:1023F000BF2B11F460FF04C06F5F7F4F8F4F9F4F63
:10240000089557FD9058440F551F59F05F3F71F0E4
:102410004795880F97FB991F61F09F3F79F087954B
:102420000895121613061406551FF2CF4695F1DFD4
:1024300008C0161617061806991FF1CF8695710564
:10244000610508940895E894BB2766277727CB0198
:1024500097F908952F923F924F925F926F927F92D9
:102460008F929F92AF92BF92CF92DF92EF92FF92A4
:102470000F931F93CF93DF93CDB7DEB7CA1BDB0B50
:102480000FB6F894DEBF0FBECDBF09942A883988F5
:1024900048885F846E847D848C849B84AA84B984FC
:1024A000C884DF80EE80FD800C811B81AA81B98108
:1024B000CE0FD11D0FB6F894DEBF0FBECDBFED011C
:1024C0000895991B79E004C0991F961708F0961B90
:1024D000881F7A95C9F780950895AA1BBB1B51E107
:1024E00007C0AA1FBB1FA617B70710F0A61BB70B84
:1024F000881F991F5A95A9F780959095BC01CD0129
:10250000089597FB072E16F4009407D077FD09D0A5
:102510000E946D1207FC05D03EF4909581959F4F67
:102520000895709561957F4F0895A1E21A2EAA1B18
:10253000BB1BFD010DC0AA1FBB1FEE1FFF1FA21773
:10254000B307E407F50720F0A21BB30BE40BF50B70
:10255000661F771F881F991F1A9469F760957095F9
:10256000809590959B01AC01BD01CF010895EE0FC0
:10257000FF1F0590F491E02D09945058BB27AA271E
:102580000E94D5120C94F0110E94E21138F00E94C2
:10259000E91120F039F49F3F19F426F40C94DF116F
:1025A0000EF4E095E7FB0C94D911E92F0E9401127B
:1025B00058F3BA17620773078407950720F079F478
:1025C000A6F50C9423120EF4E0950B2EBA2FA02D35
:1025D0000B01B90190010C01CA01A0011124FF27D0
:1025E000591B99F0593F50F4503E68F11A16F040CB
:1025F000A22F232F342F4427585FF3CF46953795CA
:102600002795A795F0405395C9F77EF41F16BA0B8E
:10261000620B730B840BBAF09150A1F0FF0FBB1F3C
:10262000661F771F881FC2F70EC0BA0F621F731F85
:10263000841F48F4879577956795B795F7959E3FE2
:1026400008F0B0CF9395880F08F09927EE0F979573
:10265000879508950E943E130C94F0110E94E91191
:1026600058F00E94E21140F029F45F3F29F00C94E9
:10267000D91151110C9424120C94DF110E940112F3
:1026800068F39923B1F3552391F3951B550BBB27A1
:10269000AA2762177307840738F09F5F5F4F220FE6
:1026A000331F441FAA1FA9F335D00E2E3AF0E0E8DD
:1026B00032D091505040E695001CCAF72BD0FE2F27
:1026C00029D0660F771F881FBB1F261737074807BB
:1026D000AB07B0E809F0BB0B802DBF01FF27935873
:1026E0005F4F3AF09E3F510578F00C94D9110C944D
:1026F00024125F3FE4F3983ED4F38695779567956F
:10270000B795F7959F5FC9F7880F911D96958795A7
:1027100097F90895E1E0660F771F881FBB1F6217C6
:1027200073078407BA0720F0621B730B840BBA0B84
:10273000EE1F88F7E09508950E94A3136894B111E5
:102740000C94241208950E94091288F09F5798F063
:10275000B92F9927B751B0F0E1F0660F771F881FA6
:10276000991F1AF0BA95C9F714C0B13091F00E94C0
:102770002312B1E008950C942312672F782F882735
:10278000B85F39F0B93FCCF3869577956795B395E7
:10279000D9F73EF490958095709561957F4F8F4F56
:1027A0009F4F08950E94481108F48FEF08950E94EA
:1027B0004811880B990B08950F931F93CF93DF93C4
:1027C0008230910510F482E090E0E0916703F0918F
:1027D000680330E020E0B0E0A0E0309799F42115E4
:1027E000310509F44AC0281B390B24303105D8F5CE
:1027F0008A819B816115710589F1FB019383828335
:10280000FE0111C04081518102811381481759078F
:10281000E0F04817590799F4109761F012960C935D
:10282000129713961C933296CF01DF91CF911F918F
:102830000F9108950093670310936803F4CF211557
:10284000310551F04217530738F0A901DB019A0115
:10285000BD01DF01F801C1CFEF01F9CF909368030B
:1028600080936703CDCFFE01E20FF31F8193919315
:102870002250310939832883D7CF209165033091C5
:102880006603232B41F4209104013091050130931C
:102890006603209365032091020130910301211505
:1028A000310541F42DB73EB7409106015091070123
:1028B000241B350BE0916503F0916603E217F307E3
:1028C000A0F42E1B3F0B2817390778F0AC014E5FA0
:1028D0005F4F2417350748F04E0F5F1F5093660374
:1028E00040936503819391939FCFF0E0E0E09CCF0C
:1028F000CF93DF930097E9F0FC01329713821282A5
:10290000A0916703B0916803ED0130E020E01097DB
:10291000A1F420813181820F931F209165033091B2
:1029200066032817390709F061C0F0936603E09346
:102930006503DF91CF910895EA01CE17DF07E8F52F
:102940004A815B819E0141155105B1F7E901FB8385
:10295000EA8349915991C40FD51FEC17FD0761F423
:10296000808191810296840F951FE9019983888364
:10297000828193819B838A83F0E0E0E012968D91BF
:102980009C9113970097B9F52D913C911197CD012A
:102990000296820F931F20916503309166032817DA
:1029A000390739F6309751F5109268031092670392
:1029B000B0936603A0936503BCCFD383C2834081E9
:1029C0005181840F951FC817D90761F44E5F5F4F7F
:1029D00088819981480F591F518340838A819B8147
:1029E000938382832115310509F0B0CFF0936803FA
:1029F000E09367039ECFFD01DC01C0CF13821282FA
:102A0000D7CFB0E0A0E0E7E0F5E10C942C128C0108
:102A1000009751F4CB010E94DC138C01C801CDB7A3
:102A2000DEB7E0E10C944812FC01E60FF71F9C01B1
:102A300022503109E217F30708F49DC0D901CD9166
:102A4000DC911197C617D70798F0C530D10530F340
:102A5000CE0104978617970708F3C61BD70B22975A
:102A6000C193D1936D937C93CF010E947814D6CFFC
:102A70005B01AC1ABD0A4C018C0E9D1EA091670330
:102A8000B0916803512C412CF12CE12C109731F5B9
:102A900080916503909166038815990509F05CC0E3
:102AA0004616570608F058C0809102019091030124
:102AB000009741F48DB79EB74091060150910701F0
:102AC000841B950BE817F90708F055C0F0936603CF
:102AD000E0936503F90171836083A0CF8D919C9190
:102AE000119712966C90129713967C901397A815D5
:102AF000B90559F56C0142E0C40ED11CCA14DB04BF
:102B000020F1AC014A195B09DA011296159780F0A1
:102B10006282738251834083D9016D937C93E11467
:102B2000F10471F0D7011396FC93EE93129776CFD0
:102B300022968C0F9D1FF90191838083F301EFCFC3
:102B4000F0936803E093670369CF4816590608F4C9
:102B50002C017D01D3019ACFCB010E94DC137C01B3
:102B6000009749F0AE01B8010E94BE15C8010E944D
:102B70007814870153CF10E000E050CFFB01DC0157
:102B800002C001900D9241505040D8F70895FB01CA
:102B9000DC0101900D920020E1F70895F894FFCF39
:102BA000FFFF00006903800000000000EF014F01FB
:102BB0007C013C02AD018B019F01000000007E05FD
:102BC0005105AD0527054A05370528050D0A006E94
:102BD000616E00696E66006F766600436F756C64A7
:102BE0006E27742066696E64205254430052544329
:102BF000206C6F737420706F7765722C207365740E
:102C000074696E672074696D6520746F20636F6DE1
:102C100070696C652074696D65210057656C636F20
:102C20006D6520546F2048657861626974003A00D0
:102C300054696D653A20002F00446174653A2000A4
:102C400053746570733A200043616C6F72696573E9
:102C50003A200044697374616E6365004B6D3A20DD
:102C6000004D696C65733A20004D616465204279BE
:102C7000004B70616E6573617238380076312E30AA
:022C8000000052
:00000001FF
